{
  "contracts/BrazilianStorm.sol": {
    "BrazilianStormSportingbet": {
      "abi": [
        {
          "inputs": [
            {
              "internalType": "address",
              "name": "_createUserVerifier",
              "type": "address"
            },
            {
              "internalType": "address",
              "name": "_depositVerifier",
              "type": "address"
            },
            {
              "internalType": "address",
              "name": "_withdrawnVerifier",
              "type": "address"
            },
            {
              "internalType": "uint8[32][2]",
              "name": "_coordinatorPubKey",
              "type": "uint8[32][2]"
            }
          ],
          "stateMutability": "nonpayable",
          "type": "constructor"
        },
        {
          "anonymous": false,
          "inputs": [
            {
              "indexed": false,
              "internalType": "uint256",
              "name": "identityCommitment",
              "type": "uint256"
            },
            {
              "indexed": false,
              "internalType": "uint8[32][2]",
              "name": "pubKey",
              "type": "uint8[32][2]"
            }
          ],
          "name": "UserCreated",
          "type": "event"
        },
        {
          "inputs": [
            {
              "internalType": "uint256",
              "name": "identityCommitment",
              "type": "uint256"
            },
            {
              "internalType": "uint256",
              "name": "currentBalance",
              "type": "uint256"
            },
            {
              "internalType": "uint256",
              "name": "newBalance",
              "type": "uint256"
            }
          ],
          "name": "changeBalance",
          "outputs": [],
          "stateMutability": "nonpayable",
          "type": "function"
        },
        {
          "inputs": [
            {
              "internalType": "uint256",
              "name": "",
              "type": "uint256"
            },
            {
              "internalType": "uint256",
              "name": "",
              "type": "uint256"
            }
          ],
          "name": "coordinatorPubKey",
          "outputs": [
            {
              "internalType": "uint8",
              "name": "",
              "type": "uint8"
            }
          ],
          "stateMutability": "view",
          "type": "function"
        },
        {
          "inputs": [
            {
              "internalType": "uint256[2]",
              "name": "a",
              "type": "uint256[2]"
            },
            {
              "internalType": "uint256[2][2]",
              "name": "b",
              "type": "uint256[2][2]"
            },
            {
              "internalType": "uint256[2]",
              "name": "c",
              "type": "uint256[2]"
            },
            {
              "internalType": "uint256[3]",
              "name": "input",
              "type": "uint256[3]"
            },
            {
              "internalType": "uint8[32][2]",
              "name": "pubKey",
              "type": "uint8[32][2]"
            }
          ],
          "name": "createUser",
          "outputs": [],
          "stateMutability": "nonpayable",
          "type": "function"
        },
        {
          "inputs": [
            {
              "internalType": "uint256[2]",
              "name": "a",
              "type": "uint256[2]"
            },
            {
              "internalType": "uint256[2][2]",
              "name": "b",
              "type": "uint256[2][2]"
            },
            {
              "internalType": "uint256[2]",
              "name": "c",
              "type": "uint256[2]"
            },
            {
              "internalType": "uint256[4]",
              "name": "input",
              "type": "uint256[4]"
            }
          ],
          "name": "deposit",
          "outputs": [],
          "stateMutability": "payable",
          "type": "function"
        },
        {
          "inputs": [
            {
              "internalType": "address",
              "name": "_betContract",
              "type": "address"
            }
          ],
          "name": "setContractAdresses",
          "outputs": [],
          "stateMutability": "nonpayable",
          "type": "function"
        },
        {
          "inputs": [
            {
              "internalType": "uint256",
              "name": "",
              "type": "uint256"
            }
          ],
          "name": "usernames",
          "outputs": [
            {
              "internalType": "bool",
              "name": "",
              "type": "bool"
            }
          ],
          "stateMutability": "view",
          "type": "function"
        },
        {
          "inputs": [
            {
              "internalType": "uint256",
              "name": "",
              "type": "uint256"
            }
          ],
          "name": "users",
          "outputs": [
            {
              "internalType": "uint256",
              "name": "balance",
              "type": "uint256"
            },
            {
              "internalType": "bool",
              "name": "isActive",
              "type": "bool"
            }
          ],
          "stateMutability": "view",
          "type": "function"
        },
        {
          "inputs": [
            {
              "internalType": "uint256[2]",
              "name": "a",
              "type": "uint256[2]"
            },
            {
              "internalType": "uint256[2][2]",
              "name": "b",
              "type": "uint256[2][2]"
            },
            {
              "internalType": "uint256[2]",
              "name": "c",
              "type": "uint256[2]"
            },
            {
              "internalType": "uint256[4]",
              "name": "input",
              "type": "uint256[4]"
            }
          ],
          "name": "withdrawn",
          "outputs": [],
          "stateMutability": "payable",
          "type": "function"
        }
      ],
      "evm": {
        "bytecode": {
          "linkReferences": {},
          "object": "60806040523480156200001157600080fd5b50604051620023e3380380620023e38339818101604052810190620000379190620003f9565b33600260006101000a81548173ffffffffffffffffffffffffffffffffffffffff021916908373ffffffffffffffffffffffffffffffffffffffff1602179055508060039060026200008b92919062000159565b5083600560006101000a81548173ffffffffffffffffffffffffffffffffffffffff021916908373ffffffffffffffffffffffffffffffffffffffff16021790555082600660006101000a81548173ffffffffffffffffffffffffffffffffffffffff021916908373ffffffffffffffffffffffffffffffffffffffff16021790555081600760006101000a81548173ffffffffffffffffffffffffffffffffffffffff021916908373ffffffffffffffffffffffffffffffffffffffff16021790555050505050620005cc565b82600281019282156200019b579160200282015b828111156200019a5782518290602062000189929190620001ae565b50916020019190600101906200016d565b5b509050620001aa91906200024f565b5090565b826020601f016020900481019282156200023c5791602002820160005b838211156200020b57835183826101000a81548160ff021916908360ff1602179055509260200192600101602081600001049283019260010302620001cb565b80156200023a5782816101000a81549060ff02191690556001016020816000010492830192600103026200020b565b505b5090506200024b919062000277565b5090565b5b8082111562000273576000818162000269919062000296565b5060010162000250565b5090565b5b808211156200029257600081600090555060010162000278565b5090565b5060009055565b6000620002b4620002ae846200048f565b62000466565b9050808285610400860282011115620002cc57600080fd5b60005b85811015620003015781620002e58882620003b8565b84526020840193506104008301925050600181019050620002cf565b5050509392505050565b6000620003226200031c84620004b8565b62000466565b905080828560208602820111156200033957600080fd5b60005b858110156200036d5781620003528882620003e2565b8452602084019350602083019250506001810190506200033c565b5050509392505050565b600081519050620003888162000598565b92915050565b600082601f830112620003a057600080fd5b6002620003af8482856200029d565b91505092915050565b600082601f830112620003ca57600080fd5b6020620003d98482856200030b565b91505092915050565b600081519050620003f381620005b2565b92915050565b60008060008061086085870312156200041157600080fd5b6000620004218782880162000377565b9450506020620004348782880162000377565b9350506040620004478782880162000377565b92505060606200045a878288016200038e565b91505092959194509250565b60006200047262000485565b905062000480828262000522565b919050565b6000604051905090565b600067ffffffffffffffff821115620004ad57620004ac62000558565b5b602082029050919050565b600067ffffffffffffffff821115620004d657620004d562000558565b5b602082029050919050565b6000620004ee82620004f5565b9050919050565b600073ffffffffffffffffffffffffffffffffffffffff82169050919050565b600060ff82169050919050565b6200052d8262000587565b810181811067ffffffffffffffff821117156200054f576200054e62000558565b5b80604052505050565b7f4e487b7100000000000000000000000000000000000000000000000000000000600052604160045260246000fd5b6000601f19601f8301169050919050565b620005a381620004e1565b8114620005af57600080fd5b50565b620005bd8162000515565b8114620005c957600080fd5b50565b611e0780620005dc6000396000f3fe60806040526004361061007b5760003560e01c806387472ac31161004e57806387472ac3146101335780639ced35f21461015c5780639d79983114610185578063acc09e3c146101c25761007b565b806312fdec6614610080578063136dd9631461009c578063365b98b2146100d957806359dde0b514610117575b600080fd5b61009a60048036038101906100959190611222565b6101eb565b005b3480156100a857600080fd5b506100c360048036038101906100be91906112b0565b610451565b6040516100d091906117f4565b60405180910390f35b3480156100e557600080fd5b5061010060048036038101906100fb91906112b0565b610471565b60405161010e929190611919565b60405180910390f35b610131600480360381019061012c9190611222565b6104a2565b005b34801561013f57600080fd5b5061015a6004803603810190610155919061117f565b610744565b005b34801561016857600080fd5b50610183600480360381019061017e9190611315565b610818565b005b34801561019157600080fd5b506101ac60048036038101906101a791906112d9565b610914565b6040516101b99190611942565b60405180910390f35b3480156101ce57600080fd5b506101e960048036038101906101e491906111a8565b610950565b005b6000600660009054906101000a900473ffffffffffffffffffffffffffffffffffffffff1673ffffffffffffffffffffffffffffffffffffffff16635fe8c13b868686866040518563ffffffff1660e01b815260040161024e94939291906117ad565b60206040518083038186803b15801561026657600080fd5b505afa15801561027a573d6000803e3d6000fd5b505050506040513d601f19601f8201168201806040525081019061029e9190611287565b9050806102e0576040517f08c379a00000000000000000000000000000000000000000000000000000000081526004016102d7906118cf565b60405180910390fd5b60006001600084600060048110610320577f4e487b7100000000000000000000000000000000000000000000000000000000600052603260045260246000fd5b6020020151815260200190815260200160002090508260016004811061036f577f4e487b7100000000000000000000000000000000000000000000000000000000600052603260045260246000fd5b602002015181600001541480156103c35750826003600481106103bb577f4e487b7100000000000000000000000000000000000000000000000000000000600052603260045260246000fd5b602002015134145b610402576040517f08c379a00000000000000000000000000000000000000000000000000000000081526004016103f99061180f565b60405180910390fd5b8260026004811061043c577f4e487b7100000000000000000000000000000000000000000000000000000000600052603260045260246000fd5b60200201518160000181905550505050505050565b60006020528060005260406000206000915054906101000a900460ff1681565b60016020528060005260406000206000915090508060000154908060030160009054906101000a900460ff16905082565b6000600760009054906101000a900473ffffffffffffffffffffffffffffffffffffffff1673ffffffffffffffffffffffffffffffffffffffff16635fe8c13b868686866040518563ffffffff1660e01b815260040161050594939291906117ad565b60206040518083038186803b15801561051d57600080fd5b505afa158015610531573d6000803e3d6000fd5b505050506040513d601f19601f820116820180604052508101906105559190611287565b905080610597576040517f08c379a000000000000000000000000000000000000000000000000000000000815260040161058e906118cf565b60405180910390fd5b600060016000846000600481106105d7577f4e487b7100000000000000000000000000000000000000000000000000000000600052603260045260246000fd5b60200201518152602001908152602001600020905082600160048110610626577f4e487b7100000000000000000000000000000000000000000000000000000000600052603260045260246000fd5b6020020151816000015414610670576040517f08c379a0000000000000000000000000000000000000000000000000000000008152600401610667906118af565b60405180910390fd5b826002600481106106aa577f4e487b7100000000000000000000000000000000000000000000000000000000600052603260045260246000fd5b602002015181600001819055503373ffffffffffffffffffffffffffffffffffffffff166108fc8460036004811061070b577f4e487b7100000000000000000000000000000000000000000000000000000000600052603260045260246000fd5b60200201519081150290604051600060405180830381858888f1935050505015801561073b573d6000803e3d6000fd5b50505050505050565b600260009054906101000a900473ffffffffffffffffffffffffffffffffffffffff1673ffffffffffffffffffffffffffffffffffffffff163373ffffffffffffffffffffffffffffffffffffffff16146107d4576040517f08c379a00000000000000000000000000000000000000000000000000000000081526004016107cb9061188f565b60405180910390fd5b80600860006101000a81548173ffffffffffffffffffffffffffffffffffffffff021916908373ffffffffffffffffffffffffffffffffffffffff16021790555050565b600860009054906101000a900473ffffffffffffffffffffffffffffffffffffffff1673ffffffffffffffffffffffffffffffffffffffff163373ffffffffffffffffffffffffffffffffffffffff16146108a8576040517f08c379a000000000000000000000000000000000000000000000000000000000815260040161089f9061186f565b60405180910390fd5b600060016000858152602001908152602001600020905082816000015414610905576040517f08c379a00000000000000000000000000000000000000000000000000000000081526004016108fc9061184f565b60405180910390fd5b81816000018190555050505050565b6003826002811061092457600080fd5b01816020811061093357600080fd5b60209182820401919006915091509054906101000a900460ff1681565b6000600560009054906101000a900473ffffffffffffffffffffffffffffffffffffffff1673ffffffffffffffffffffffffffffffffffffffff166311479fea878787876040518563ffffffff1660e01b81526004016109b39493929190611766565b60206040518083038186803b1580156109cb57600080fd5b505afa1580156109df573d6000803e3d6000fd5b505050506040513d601f19601f82011682018060405250810190610a039190611287565b905080610a45576040517f08c379a0000000000000000000000000000000000000000000000000000000008152600401610a3c906118cf565b60405180910390fd5b60008084600160038110610a82577f4e487b7100000000000000000000000000000000000000000000000000000000600052603260045260246000fd5b6020020151815260200190815260200160002060009054906101000a900460ff1615610ae3576040517f08c379a0000000000000000000000000000000000000000000000000000000008152600401610ada9061182f565b60405180910390fd5b600160008085600160038110610b22577f4e487b7100000000000000000000000000000000000000000000000000000000600052603260045260246000fd5b6020020151815260200190815260200160002060006101000a81548160ff021916908315150217905550604051806060016040528084600260038110610b91577f4e487b7100000000000000000000000000000000000000000000000000000000600052603260045260246000fd5b60200201518152602001838152602001600115158152506001600085600060038110610be6577f4e487b7100000000000000000000000000000000000000000000000000000000600052603260045260246000fd5b6020020151815260200190815260200160002060008201518160000155602082015181600101906002610c1a929190610cbd565b5060408201518160030160006101000a81548160ff0219169083151502179055509050507f259ef7fea9f07612663253d2844b5bc7e4046d58b6be03a7c82db8393da288cd83600060038110610c99577f4e487b7100000000000000000000000000000000000000000000000000000000600052603260045260246000fd5b602002015183604051610cad9291906118ef565b60405180910390a1505050505050565b8260028101928215610cfa579160200282015b82811115610cf957825182906020610ce9929190610d0b565b5091602001919060010190610cd0565b5b509050610d079190610da5565b5090565b826020601f01602090048101928215610d945791602002820160005b83821115610d6557835183826101000a81548160ff021916908360ff1602179055509260200192600101602081600001049283019260010302610d27565b8015610d925782816101000a81549060ff0219169055600101602081600001049283019260010302610d65565b505b509050610da19190610dc9565b5090565b5b80821115610dc55760008181610dbc9190610de6565b50600101610da6565b5090565b5b80821115610de2576000816000905550600101610dca565b5090565b5060009055565b6000610e00610dfb84611982565b61195d565b90508082856040860282011115610e1657600080fd5b60005b85811015610e465781610e2c88826110a4565b845260208401935060408301925050600181019050610e19565b5050509392505050565b6000610e63610e5e846119a8565b61195d565b9050808285610400860282011115610e7a57600080fd5b60005b85811015610eab5781610e908882611119565b84526020840193506104008301925050600181019050610e7d565b5050509392505050565b6000610ec8610ec3846119ce565b61195d565b90508082856020860282011115610ede57600080fd5b60005b85811015610f0e5781610ef48882611155565b845260208401935060208301925050600181019050610ee1565b5050509392505050565b6000610f2b610f26846119f4565b61195d565b90508082856020860282011115610f4157600080fd5b60005b85811015610f715781610f578882611155565b845260208401935060208301925050600181019050610f44565b5050509392505050565b6000610f8e610f8984611a1a565b61195d565b90508082856020860282011115610fa457600080fd5b60005b85811015610fd45781610fba8882611155565b845260208401935060208301925050600181019050610fa7565b5050509392505050565b6000610ff1610fec84611a40565b61195d565b9050808285602086028201111561100757600080fd5b60005b85811015611037578161101d888261116a565b84526020840193506020830192505060018101905061100a565b5050509392505050565b60008135905061105081611d75565b92915050565b600082601f83011261106757600080fd5b6002611074848285610ded565b91505092915050565b600082601f83011261108e57600080fd5b600261109b848285610e50565b91505092915050565b600082601f8301126110b557600080fd5b60026110c2848285610eb5565b91505092915050565b600082601f8301126110dc57600080fd5b60036110e9848285610f18565b91505092915050565b600082601f83011261110357600080fd5b6004611110848285610f7b565b91505092915050565b600082601f83011261112a57600080fd5b6020611137848285610fde565b91505092915050565b60008151905061114f81611d8c565b92915050565b60008135905061116481611da3565b92915050565b60008135905061117981611dba565b92915050565b60006020828403121561119157600080fd5b600061119f84828501611041565b91505092915050565b600080600080600061096086880312156111c157600080fd5b60006111cf888289016110a4565b95505060406111e088828901611056565b94505060c06111f1888289016110a4565b935050610100611203888289016110cb565b9250506101606112158882890161107d565b9150509295509295909350565b600080600080610180858703121561123957600080fd5b6000611247878288016110a4565b945050604061125887828801611056565b93505060c0611269878288016110a4565b92505061010061127b878288016110f2565b91505092959194509250565b60006020828403121561129957600080fd5b60006112a784828501611140565b91505092915050565b6000602082840312156112c257600080fd5b60006112d084828501611155565b91505092915050565b600080604083850312156112ec57600080fd5b60006112fa85828601611155565b925050602061130b85828601611155565b9150509250929050565b60008060006060848603121561132a57600080fd5b600061133886828701611155565b935050602061134986828701611155565b925050604061135a86828701611155565b9150509250925092565b60006113708383611473565b60408301905092915050565b600061138883836115cf565b6104008301905092915050565b60006113a1838361172a565b60208301905092915050565b60006113b98383611748565b60208301905092915050565b6113ce81611aa2565b6113d88184611b32565b92506113e382611a66565b8060005b838110156114145781516113fb8782611364565b965061140683611ae4565b9250506001810190506113e7565b505050505050565b61142581611aad565b61142f8184611b3d565b925061143a82611a70565b8060005b8381101561146b578151611452878261137c565b965061145d83611af1565b92505060018101905061143e565b505050505050565b61147c81611ab8565b6114868184611b48565b925061149182611a7a565b8060005b838110156114c25781516114a98782611395565b96506114b483611afe565b925050600181019050611495565b505050505050565b6114d381611ab8565b6114dd8184611b53565b92506114e882611a7a565b8060005b838110156115195781516115008782611395565b965061150b83611afe565b9250506001810190506114ec565b505050505050565b61152a81611ac3565b6115348184611b5e565b925061153f82611a84565b8060005b838110156115705781516115578782611395565b965061156283611b0b565b925050600181019050611543565b505050505050565b61158181611ace565b61158b8184611b69565b925061159682611a8e565b8060005b838110156115c75781516115ae8782611395565b96506115b983611b18565b92505060018101905061159a565b505050505050565b6115d881611ad9565b6115e28184611b74565b92506115ed82611a98565b8060005b8381101561161e57815161160587826113ad565b965061161083611b25565b9250506001810190506115f1565b505050505050565b61162f81611ba2565b82525050565b6000611642600f83611b7f565b915061164d82611c56565b602082019050919050565b6000611665601183611b7f565b915061167082611c7f565b602082019050919050565b6000611688601783611b7f565b915061169382611ca8565b602082019050919050565b60006116ab601683611b7f565b91506116b682611cd1565b602082019050919050565b60006116ce601883611b7f565b91506116d982611cfa565b602082019050919050565b60006116f1601183611b7f565b91506116fc82611d23565b602082019050919050565b6000611714600d83611b7f565b915061171f82611d4c565b602082019050919050565b61173381611bce565b82525050565b61174281611bce565b82525050565b61175181611bd8565b82525050565b61176081611bd8565b82525050565b60006101608201905061177c60008301876114ca565b61178960408301866113c5565b61179660c08301856114ca565b6117a4610100830184611521565b95945050505050565b6000610180820190506117c360008301876114ca565b6117d060408301866113c5565b6117dd60c08301856114ca565b6117eb610100830184611578565b95945050505050565b60006020820190506118096000830184611626565b92915050565b6000602082019050818103600083015261182881611635565b9050919050565b6000602082019050818103600083015261184881611658565b9050919050565b600060208201905081810360008301526118688161167b565b9050919050565b600060208201905081810360008301526118888161169e565b9050919050565b600060208201905081810360008301526118a8816116c1565b9050919050565b600060208201905081810360008301526118c8816116e4565b9050919050565b600060208201905081810360008301526118e881611707565b9050919050565b6000610820820190506119056000830185611739565b611912602083018461141c565b9392505050565b600060408201905061192e6000830185611739565b61193b6020830184611626565b9392505050565b60006020820190506119576000830184611757565b92915050565b6000611967611978565b90506119738282611be5565b919050565b6000604051905090565b600067ffffffffffffffff82111561199d5761199c611c16565b5b602082029050919050565b600067ffffffffffffffff8211156119c3576119c2611c16565b5b602082029050919050565b600067ffffffffffffffff8211156119e9576119e8611c16565b5b602082029050919050565b600067ffffffffffffffff821115611a0f57611a0e611c16565b5b602082029050919050565b600067ffffffffffffffff821115611a3557611a34611c16565b5b602082029050919050565b600067ffffffffffffffff821115611a5b57611a5a611c16565b5b602082029050919050565b6000819050919050565b6000819050919050565b6000819050919050565b6000819050919050565b6000819050919050565b6000819050919050565b600060029050919050565b600060029050919050565b600060029050919050565b600060039050919050565b600060049050919050565b600060209050919050565b6000602082019050919050565b6000602082019050919050565b6000602082019050919050565b6000602082019050919050565b6000602082019050919050565b6000602082019050919050565b600081905092915050565b600081905092915050565b600081905092915050565b600081905092915050565b600081905092915050565b600081905092915050565b600081905092915050565b600082825260208201905092915050565b6000611b9b82611bae565b9050919050565b60008115159050919050565b600073ffffffffffffffffffffffffffffffffffffffff82169050919050565b6000819050919050565b600060ff82169050919050565b611bee82611c45565b810181811067ffffffffffffffff82111715611c0d57611c0c611c16565b5b80604052505050565b7f4e487b7100000000000000000000000000000000000000000000000000000000600052604160045260246000fd5b6000601f19601f8301169050919050565b7f496e76616c6964206465706f7369740000000000000000000000000000000000600082015250565b7f557365726e616d652069732074616b656e000000000000000000000000000000600082015250565b7f496e76616c69642063757272656e742062616c616e6365000000000000000000600082015250565b7f4f6e6c7920636f6e74726163747320616c6c6f77656400000000000000000000600082015250565b7f4f6e6c7920636f6f7264696e61746f7220616c6c6f7765640000000000000000600082015250565b7f496e76616c69642077697468647261776e000000000000000000000000000000600082015250565b7f496e76616c69642070726f6f6600000000000000000000000000000000000000600082015250565b611d7e81611b90565b8114611d8957600080fd5b50565b611d9581611ba2565b8114611da057600080fd5b50565b611dac81611bce565b8114611db757600080fd5b50565b611dc381611bd8565b8114611dce57600080fd5b5056fea2646970667358221220b5ef0c0814d257c649952e0f7d619d81257ca1dd57953ce486f4af1a8eb3538a64736f6c63430008040033",
          "opcodes": "PUSH1 0x80 PUSH1 0x40 MSTORE CALLVALUE DUP1 ISZERO PUSH3 0x11 JUMPI PUSH1 0x0 DUP1 REVERT JUMPDEST POP PUSH1 0x40 MLOAD PUSH3 0x23E3 CODESIZE SUB DUP1 PUSH3 0x23E3 DUP4 CODECOPY DUP2 DUP2 ADD PUSH1 0x40 MSTORE DUP2 ADD SWAP1 PUSH3 0x37 SWAP2 SWAP1 PUSH3 0x3F9 JUMP JUMPDEST CALLER PUSH1 0x2 PUSH1 0x0 PUSH2 0x100 EXP DUP2 SLOAD DUP2 PUSH20 0xFFFFFFFFFFFFFFFFFFFFFFFFFFFFFFFFFFFFFFFF MUL NOT AND SWAP1 DUP4 PUSH20 0xFFFFFFFFFFFFFFFFFFFFFFFFFFFFFFFFFFFFFFFF AND MUL OR SWAP1 SSTORE POP DUP1 PUSH1 0x3 SWAP1 PUSH1 0x2 PUSH3 0x8B SWAP3 SWAP2 SWAP1 PUSH3 0x159 JUMP JUMPDEST POP DUP4 PUSH1 0x5 PUSH1 0x0 PUSH2 0x100 EXP DUP2 SLOAD DUP2 PUSH20 0xFFFFFFFFFFFFFFFFFFFFFFFFFFFFFFFFFFFFFFFF MUL NOT AND SWAP1 DUP4 PUSH20 0xFFFFFFFFFFFFFFFFFFFFFFFFFFFFFFFFFFFFFFFF AND MUL OR SWAP1 SSTORE POP DUP3 PUSH1 0x6 PUSH1 0x0 PUSH2 0x100 EXP DUP2 SLOAD DUP2 PUSH20 0xFFFFFFFFFFFFFFFFFFFFFFFFFFFFFFFFFFFFFFFF MUL NOT AND SWAP1 DUP4 PUSH20 0xFFFFFFFFFFFFFFFFFFFFFFFFFFFFFFFFFFFFFFFF AND MUL OR SWAP1 SSTORE POP DUP2 PUSH1 0x7 PUSH1 0x0 PUSH2 0x100 EXP DUP2 SLOAD DUP2 PUSH20 0xFFFFFFFFFFFFFFFFFFFFFFFFFFFFFFFFFFFFFFFF MUL NOT AND SWAP1 DUP4 PUSH20 0xFFFFFFFFFFFFFFFFFFFFFFFFFFFFFFFFFFFFFFFF AND MUL OR SWAP1 SSTORE POP POP POP POP POP PUSH3 0x5CC JUMP JUMPDEST DUP3 PUSH1 0x2 DUP2 ADD SWAP3 DUP3 ISZERO PUSH3 0x19B JUMPI SWAP2 PUSH1 0x20 MUL DUP3 ADD JUMPDEST DUP3 DUP2 GT ISZERO PUSH3 0x19A JUMPI DUP3 MLOAD DUP3 SWAP1 PUSH1 0x20 PUSH3 0x189 SWAP3 SWAP2 SWAP1 PUSH3 0x1AE JUMP JUMPDEST POP SWAP2 PUSH1 0x20 ADD SWAP2 SWAP1 PUSH1 0x1 ADD SWAP1 PUSH3 0x16D JUMP JUMPDEST JUMPDEST POP SWAP1 POP PUSH3 0x1AA SWAP2 SWAP1 PUSH3 0x24F JUMP JUMPDEST POP SWAP1 JUMP JUMPDEST DUP3 PUSH1 0x20 PUSH1 0x1F ADD PUSH1 0x20 SWAP1 DIV DUP2 ADD SWAP3 DUP3 ISZERO PUSH3 0x23C JUMPI SWAP2 PUSH1 0x20 MUL DUP3 ADD PUSH1 0x0 JUMPDEST DUP4 DUP3 GT ISZERO PUSH3 0x20B JUMPI DUP4 MLOAD DUP4 DUP3 PUSH2 0x100 EXP DUP2 SLOAD DUP2 PUSH1 0xFF MUL NOT AND SWAP1 DUP4 PUSH1 0xFF AND MUL OR SWAP1 SSTORE POP SWAP3 PUSH1 0x20 ADD SWAP3 PUSH1 0x1 ADD PUSH1 0x20 DUP2 PUSH1 0x0 ADD DIV SWAP3 DUP4 ADD SWAP3 PUSH1 0x1 SUB MUL PUSH3 0x1CB JUMP JUMPDEST DUP1 ISZERO PUSH3 0x23A JUMPI DUP3 DUP2 PUSH2 0x100 EXP DUP2 SLOAD SWAP1 PUSH1 0xFF MUL NOT AND SWAP1 SSTORE PUSH1 0x1 ADD PUSH1 0x20 DUP2 PUSH1 0x0 ADD DIV SWAP3 DUP4 ADD SWAP3 PUSH1 0x1 SUB MUL PUSH3 0x20B JUMP JUMPDEST POP JUMPDEST POP SWAP1 POP PUSH3 0x24B SWAP2 SWAP1 PUSH3 0x277 JUMP JUMPDEST POP SWAP1 JUMP JUMPDEST JUMPDEST DUP1 DUP3 GT ISZERO PUSH3 0x273 JUMPI PUSH1 0x0 DUP2 DUP2 PUSH3 0x269 SWAP2 SWAP1 PUSH3 0x296 JUMP JUMPDEST POP PUSH1 0x1 ADD PUSH3 0x250 JUMP JUMPDEST POP SWAP1 JUMP JUMPDEST JUMPDEST DUP1 DUP3 GT ISZERO PUSH3 0x292 JUMPI PUSH1 0x0 DUP2 PUSH1 0x0 SWAP1 SSTORE POP PUSH1 0x1 ADD PUSH3 0x278 JUMP JUMPDEST POP SWAP1 JUMP JUMPDEST POP PUSH1 0x0 SWAP1 SSTORE JUMP JUMPDEST PUSH1 0x0 PUSH3 0x2B4 PUSH3 0x2AE DUP5 PUSH3 0x48F JUMP JUMPDEST PUSH3 0x466 JUMP JUMPDEST SWAP1 POP DUP1 DUP3 DUP6 PUSH2 0x400 DUP7 MUL DUP3 ADD GT ISZERO PUSH3 0x2CC JUMPI PUSH1 0x0 DUP1 REVERT JUMPDEST PUSH1 0x0 JUMPDEST DUP6 DUP2 LT ISZERO PUSH3 0x301 JUMPI DUP2 PUSH3 0x2E5 DUP9 DUP3 PUSH3 0x3B8 JUMP JUMPDEST DUP5 MSTORE PUSH1 0x20 DUP5 ADD SWAP4 POP PUSH2 0x400 DUP4 ADD SWAP3 POP POP PUSH1 0x1 DUP2 ADD SWAP1 POP PUSH3 0x2CF JUMP JUMPDEST POP POP POP SWAP4 SWAP3 POP POP POP JUMP JUMPDEST PUSH1 0x0 PUSH3 0x322 PUSH3 0x31C DUP5 PUSH3 0x4B8 JUMP JUMPDEST PUSH3 0x466 JUMP JUMPDEST SWAP1 POP DUP1 DUP3 DUP6 PUSH1 0x20 DUP7 MUL DUP3 ADD GT ISZERO PUSH3 0x339 JUMPI PUSH1 0x0 DUP1 REVERT JUMPDEST PUSH1 0x0 JUMPDEST DUP6 DUP2 LT ISZERO PUSH3 0x36D JUMPI DUP2 PUSH3 0x352 DUP9 DUP3 PUSH3 0x3E2 JUMP JUMPDEST DUP5 MSTORE PUSH1 0x20 DUP5 ADD SWAP4 POP PUSH1 0x20 DUP4 ADD SWAP3 POP POP PUSH1 0x1 DUP2 ADD SWAP1 POP PUSH3 0x33C JUMP JUMPDEST POP POP POP SWAP4 SWAP3 POP POP POP JUMP JUMPDEST PUSH1 0x0 DUP2 MLOAD SWAP1 POP PUSH3 0x388 DUP2 PUSH3 0x598 JUMP JUMPDEST SWAP3 SWAP2 POP POP JUMP JUMPDEST PUSH1 0x0 DUP3 PUSH1 0x1F DUP4 ADD SLT PUSH3 0x3A0 JUMPI PUSH1 0x0 DUP1 REVERT JUMPDEST PUSH1 0x2 PUSH3 0x3AF DUP5 DUP3 DUP6 PUSH3 0x29D JUMP JUMPDEST SWAP2 POP POP SWAP3 SWAP2 POP POP JUMP JUMPDEST PUSH1 0x0 DUP3 PUSH1 0x1F DUP4 ADD SLT PUSH3 0x3CA JUMPI PUSH1 0x0 DUP1 REVERT JUMPDEST PUSH1 0x20 PUSH3 0x3D9 DUP5 DUP3 DUP6 PUSH3 0x30B JUMP JUMPDEST SWAP2 POP POP SWAP3 SWAP2 POP POP JUMP JUMPDEST PUSH1 0x0 DUP2 MLOAD SWAP1 POP PUSH3 0x3F3 DUP2 PUSH3 0x5B2 JUMP JUMPDEST SWAP3 SWAP2 POP POP JUMP JUMPDEST PUSH1 0x0 DUP1 PUSH1 0x0 DUP1 PUSH2 0x860 DUP6 DUP8 SUB SLT ISZERO PUSH3 0x411 JUMPI PUSH1 0x0 DUP1 REVERT JUMPDEST PUSH1 0x0 PUSH3 0x421 DUP8 DUP3 DUP9 ADD PUSH3 0x377 JUMP JUMPDEST SWAP5 POP POP PUSH1 0x20 PUSH3 0x434 DUP8 DUP3 DUP9 ADD PUSH3 0x377 JUMP JUMPDEST SWAP4 POP POP PUSH1 0x40 PUSH3 0x447 DUP8 DUP3 DUP9 ADD PUSH3 0x377 JUMP JUMPDEST SWAP3 POP POP PUSH1 0x60 PUSH3 0x45A DUP8 DUP3 DUP9 ADD PUSH3 0x38E JUMP JUMPDEST SWAP2 POP POP SWAP3 SWAP6 SWAP2 SWAP5 POP SWAP3 POP JUMP JUMPDEST PUSH1 0x0 PUSH3 0x472 PUSH3 0x485 JUMP JUMPDEST SWAP1 POP PUSH3 0x480 DUP3 DUP3 PUSH3 0x522 JUMP JUMPDEST SWAP2 SWAP1 POP JUMP JUMPDEST PUSH1 0x0 PUSH1 0x40 MLOAD SWAP1 POP SWAP1 JUMP JUMPDEST PUSH1 0x0 PUSH8 0xFFFFFFFFFFFFFFFF DUP3 GT ISZERO PUSH3 0x4AD JUMPI PUSH3 0x4AC PUSH3 0x558 JUMP JUMPDEST JUMPDEST PUSH1 0x20 DUP3 MUL SWAP1 POP SWAP2 SWAP1 POP JUMP JUMPDEST PUSH1 0x0 PUSH8 0xFFFFFFFFFFFFFFFF DUP3 GT ISZERO PUSH3 0x4D6 JUMPI PUSH3 0x4D5 PUSH3 0x558 JUMP JUMPDEST JUMPDEST PUSH1 0x20 DUP3 MUL SWAP1 POP SWAP2 SWAP1 POP JUMP JUMPDEST PUSH1 0x0 PUSH3 0x4EE DUP3 PUSH3 0x4F5 JUMP JUMPDEST SWAP1 POP SWAP2 SWAP1 POP JUMP JUMPDEST PUSH1 0x0 PUSH20 0xFFFFFFFFFFFFFFFFFFFFFFFFFFFFFFFFFFFFFFFF DUP3 AND SWAP1 POP SWAP2 SWAP1 POP JUMP JUMPDEST PUSH1 0x0 PUSH1 0xFF DUP3 AND SWAP1 POP SWAP2 SWAP1 POP JUMP JUMPDEST PUSH3 0x52D DUP3 PUSH3 0x587 JUMP JUMPDEST DUP2 ADD DUP2 DUP2 LT PUSH8 0xFFFFFFFFFFFFFFFF DUP3 GT OR ISZERO PUSH3 0x54F JUMPI PUSH3 0x54E PUSH3 0x558 JUMP JUMPDEST JUMPDEST DUP1 PUSH1 0x40 MSTORE POP POP POP JUMP JUMPDEST PUSH32 0x4E487B7100000000000000000000000000000000000000000000000000000000 PUSH1 0x0 MSTORE PUSH1 0x41 PUSH1 0x4 MSTORE PUSH1 0x24 PUSH1 0x0 REVERT JUMPDEST PUSH1 0x0 PUSH1 0x1F NOT PUSH1 0x1F DUP4 ADD AND SWAP1 POP SWAP2 SWAP1 POP JUMP JUMPDEST PUSH3 0x5A3 DUP2 PUSH3 0x4E1 JUMP JUMPDEST DUP2 EQ PUSH3 0x5AF JUMPI PUSH1 0x0 DUP1 REVERT JUMPDEST POP JUMP JUMPDEST PUSH3 0x5BD DUP2 PUSH3 0x515 JUMP JUMPDEST DUP2 EQ PUSH3 0x5C9 JUMPI PUSH1 0x0 DUP1 REVERT JUMPDEST POP JUMP JUMPDEST PUSH2 0x1E07 DUP1 PUSH3 0x5DC PUSH1 0x0 CODECOPY PUSH1 0x0 RETURN INVALID PUSH1 0x80 PUSH1 0x40 MSTORE PUSH1 0x4 CALLDATASIZE LT PUSH2 0x7B JUMPI PUSH1 0x0 CALLDATALOAD PUSH1 0xE0 SHR DUP1 PUSH4 0x87472AC3 GT PUSH2 0x4E JUMPI DUP1 PUSH4 0x87472AC3 EQ PUSH2 0x133 JUMPI DUP1 PUSH4 0x9CED35F2 EQ PUSH2 0x15C JUMPI DUP1 PUSH4 0x9D799831 EQ PUSH2 0x185 JUMPI DUP1 PUSH4 0xACC09E3C EQ PUSH2 0x1C2 JUMPI PUSH2 0x7B JUMP JUMPDEST DUP1 PUSH4 0x12FDEC66 EQ PUSH2 0x80 JUMPI DUP1 PUSH4 0x136DD963 EQ PUSH2 0x9C JUMPI DUP1 PUSH4 0x365B98B2 EQ PUSH2 0xD9 JUMPI DUP1 PUSH4 0x59DDE0B5 EQ PUSH2 0x117 JUMPI JUMPDEST PUSH1 0x0 DUP1 REVERT JUMPDEST PUSH2 0x9A PUSH1 0x4 DUP1 CALLDATASIZE SUB DUP2 ADD SWAP1 PUSH2 0x95 SWAP2 SWAP1 PUSH2 0x1222 JUMP JUMPDEST PUSH2 0x1EB JUMP JUMPDEST STOP JUMPDEST CALLVALUE DUP1 ISZERO PUSH2 0xA8 JUMPI PUSH1 0x0 DUP1 REVERT JUMPDEST POP PUSH2 0xC3 PUSH1 0x4 DUP1 CALLDATASIZE SUB DUP2 ADD SWAP1 PUSH2 0xBE SWAP2 SWAP1 PUSH2 0x12B0 JUMP JUMPDEST PUSH2 0x451 JUMP JUMPDEST PUSH1 0x40 MLOAD PUSH2 0xD0 SWAP2 SWAP1 PUSH2 0x17F4 JUMP JUMPDEST PUSH1 0x40 MLOAD DUP1 SWAP2 SUB SWAP1 RETURN JUMPDEST CALLVALUE DUP1 ISZERO PUSH2 0xE5 JUMPI PUSH1 0x0 DUP1 REVERT JUMPDEST POP PUSH2 0x100 PUSH1 0x4 DUP1 CALLDATASIZE SUB DUP2 ADD SWAP1 PUSH2 0xFB SWAP2 SWAP1 PUSH2 0x12B0 JUMP JUMPDEST PUSH2 0x471 JUMP JUMPDEST PUSH1 0x40 MLOAD PUSH2 0x10E SWAP3 SWAP2 SWAP1 PUSH2 0x1919 JUMP JUMPDEST PUSH1 0x40 MLOAD DUP1 SWAP2 SUB SWAP1 RETURN JUMPDEST PUSH2 0x131 PUSH1 0x4 DUP1 CALLDATASIZE SUB DUP2 ADD SWAP1 PUSH2 0x12C SWAP2 SWAP1 PUSH2 0x1222 JUMP JUMPDEST PUSH2 0x4A2 JUMP JUMPDEST STOP JUMPDEST CALLVALUE DUP1 ISZERO PUSH2 0x13F JUMPI PUSH1 0x0 DUP1 REVERT JUMPDEST POP PUSH2 0x15A PUSH1 0x4 DUP1 CALLDATASIZE SUB DUP2 ADD SWAP1 PUSH2 0x155 SWAP2 SWAP1 PUSH2 0x117F JUMP JUMPDEST PUSH2 0x744 JUMP JUMPDEST STOP JUMPDEST CALLVALUE DUP1 ISZERO PUSH2 0x168 JUMPI PUSH1 0x0 DUP1 REVERT JUMPDEST POP PUSH2 0x183 PUSH1 0x4 DUP1 CALLDATASIZE SUB DUP2 ADD SWAP1 PUSH2 0x17E SWAP2 SWAP1 PUSH2 0x1315 JUMP JUMPDEST PUSH2 0x818 JUMP JUMPDEST STOP JUMPDEST CALLVALUE DUP1 ISZERO PUSH2 0x191 JUMPI PUSH1 0x0 DUP1 REVERT JUMPDEST POP PUSH2 0x1AC PUSH1 0x4 DUP1 CALLDATASIZE SUB DUP2 ADD SWAP1 PUSH2 0x1A7 SWAP2 SWAP1 PUSH2 0x12D9 JUMP JUMPDEST PUSH2 0x914 JUMP JUMPDEST PUSH1 0x40 MLOAD PUSH2 0x1B9 SWAP2 SWAP1 PUSH2 0x1942 JUMP JUMPDEST PUSH1 0x40 MLOAD DUP1 SWAP2 SUB SWAP1 RETURN JUMPDEST CALLVALUE DUP1 ISZERO PUSH2 0x1CE JUMPI PUSH1 0x0 DUP1 REVERT JUMPDEST POP PUSH2 0x1E9 PUSH1 0x4 DUP1 CALLDATASIZE SUB DUP2 ADD SWAP1 PUSH2 0x1E4 SWAP2 SWAP1 PUSH2 0x11A8 JUMP JUMPDEST PUSH2 0x950 JUMP JUMPDEST STOP JUMPDEST PUSH1 0x0 PUSH1 0x6 PUSH1 0x0 SWAP1 SLOAD SWAP1 PUSH2 0x100 EXP SWAP1 DIV PUSH20 0xFFFFFFFFFFFFFFFFFFFFFFFFFFFFFFFFFFFFFFFF AND PUSH20 0xFFFFFFFFFFFFFFFFFFFFFFFFFFFFFFFFFFFFFFFF AND PUSH4 0x5FE8C13B DUP7 DUP7 DUP7 DUP7 PUSH1 0x40 MLOAD DUP6 PUSH4 0xFFFFFFFF AND PUSH1 0xE0 SHL DUP2 MSTORE PUSH1 0x4 ADD PUSH2 0x24E SWAP5 SWAP4 SWAP3 SWAP2 SWAP1 PUSH2 0x17AD JUMP JUMPDEST PUSH1 0x20 PUSH1 0x40 MLOAD DUP1 DUP4 SUB DUP2 DUP7 DUP1 EXTCODESIZE ISZERO DUP1 ISZERO PUSH2 0x266 JUMPI PUSH1 0x0 DUP1 REVERT JUMPDEST POP GAS STATICCALL ISZERO DUP1 ISZERO PUSH2 0x27A JUMPI RETURNDATASIZE PUSH1 0x0 DUP1 RETURNDATACOPY RETURNDATASIZE PUSH1 0x0 REVERT JUMPDEST POP POP POP POP PUSH1 0x40 MLOAD RETURNDATASIZE PUSH1 0x1F NOT PUSH1 0x1F DUP3 ADD AND DUP3 ADD DUP1 PUSH1 0x40 MSTORE POP DUP2 ADD SWAP1 PUSH2 0x29E SWAP2 SWAP1 PUSH2 0x1287 JUMP JUMPDEST SWAP1 POP DUP1 PUSH2 0x2E0 JUMPI PUSH1 0x40 MLOAD PUSH32 0x8C379A000000000000000000000000000000000000000000000000000000000 DUP2 MSTORE PUSH1 0x4 ADD PUSH2 0x2D7 SWAP1 PUSH2 0x18CF JUMP JUMPDEST PUSH1 0x40 MLOAD DUP1 SWAP2 SUB SWAP1 REVERT JUMPDEST PUSH1 0x0 PUSH1 0x1 PUSH1 0x0 DUP5 PUSH1 0x0 PUSH1 0x4 DUP2 LT PUSH2 0x320 JUMPI PUSH32 0x4E487B7100000000000000000000000000000000000000000000000000000000 PUSH1 0x0 MSTORE PUSH1 0x32 PUSH1 0x4 MSTORE PUSH1 0x24 PUSH1 0x0 REVERT JUMPDEST PUSH1 0x20 MUL ADD MLOAD DUP2 MSTORE PUSH1 0x20 ADD SWAP1 DUP2 MSTORE PUSH1 0x20 ADD PUSH1 0x0 KECCAK256 SWAP1 POP DUP3 PUSH1 0x1 PUSH1 0x4 DUP2 LT PUSH2 0x36F JUMPI PUSH32 0x4E487B7100000000000000000000000000000000000000000000000000000000 PUSH1 0x0 MSTORE PUSH1 0x32 PUSH1 0x4 MSTORE PUSH1 0x24 PUSH1 0x0 REVERT JUMPDEST PUSH1 0x20 MUL ADD MLOAD DUP2 PUSH1 0x0 ADD SLOAD EQ DUP1 ISZERO PUSH2 0x3C3 JUMPI POP DUP3 PUSH1 0x3 PUSH1 0x4 DUP2 LT PUSH2 0x3BB JUMPI PUSH32 0x4E487B7100000000000000000000000000000000000000000000000000000000 PUSH1 0x0 MSTORE PUSH1 0x32 PUSH1 0x4 MSTORE PUSH1 0x24 PUSH1 0x0 REVERT JUMPDEST PUSH1 0x20 MUL ADD MLOAD CALLVALUE EQ JUMPDEST PUSH2 0x402 JUMPI PUSH1 0x40 MLOAD PUSH32 0x8C379A000000000000000000000000000000000000000000000000000000000 DUP2 MSTORE PUSH1 0x4 ADD PUSH2 0x3F9 SWAP1 PUSH2 0x180F JUMP JUMPDEST PUSH1 0x40 MLOAD DUP1 SWAP2 SUB SWAP1 REVERT JUMPDEST DUP3 PUSH1 0x2 PUSH1 0x4 DUP2 LT PUSH2 0x43C JUMPI PUSH32 0x4E487B7100000000000000000000000000000000000000000000000000000000 PUSH1 0x0 MSTORE PUSH1 0x32 PUSH1 0x4 MSTORE PUSH1 0x24 PUSH1 0x0 REVERT JUMPDEST PUSH1 0x20 MUL ADD MLOAD DUP2 PUSH1 0x0 ADD DUP2 SWAP1 SSTORE POP POP POP POP POP POP POP JUMP JUMPDEST PUSH1 0x0 PUSH1 0x20 MSTORE DUP1 PUSH1 0x0 MSTORE PUSH1 0x40 PUSH1 0x0 KECCAK256 PUSH1 0x0 SWAP2 POP SLOAD SWAP1 PUSH2 0x100 EXP SWAP1 DIV PUSH1 0xFF AND DUP2 JUMP JUMPDEST PUSH1 0x1 PUSH1 0x20 MSTORE DUP1 PUSH1 0x0 MSTORE PUSH1 0x40 PUSH1 0x0 KECCAK256 PUSH1 0x0 SWAP2 POP SWAP1 POP DUP1 PUSH1 0x0 ADD SLOAD SWAP1 DUP1 PUSH1 0x3 ADD PUSH1 0x0 SWAP1 SLOAD SWAP1 PUSH2 0x100 EXP SWAP1 DIV PUSH1 0xFF AND SWAP1 POP DUP3 JUMP JUMPDEST PUSH1 0x0 PUSH1 0x7 PUSH1 0x0 SWAP1 SLOAD SWAP1 PUSH2 0x100 EXP SWAP1 DIV PUSH20 0xFFFFFFFFFFFFFFFFFFFFFFFFFFFFFFFFFFFFFFFF AND PUSH20 0xFFFFFFFFFFFFFFFFFFFFFFFFFFFFFFFFFFFFFFFF AND PUSH4 0x5FE8C13B DUP7 DUP7 DUP7 DUP7 PUSH1 0x40 MLOAD DUP6 PUSH4 0xFFFFFFFF AND PUSH1 0xE0 SHL DUP2 MSTORE PUSH1 0x4 ADD PUSH2 0x505 SWAP5 SWAP4 SWAP3 SWAP2 SWAP1 PUSH2 0x17AD JUMP JUMPDEST PUSH1 0x20 PUSH1 0x40 MLOAD DUP1 DUP4 SUB DUP2 DUP7 DUP1 EXTCODESIZE ISZERO DUP1 ISZERO PUSH2 0x51D JUMPI PUSH1 0x0 DUP1 REVERT JUMPDEST POP GAS STATICCALL ISZERO DUP1 ISZERO PUSH2 0x531 JUMPI RETURNDATASIZE PUSH1 0x0 DUP1 RETURNDATACOPY RETURNDATASIZE PUSH1 0x0 REVERT JUMPDEST POP POP POP POP PUSH1 0x40 MLOAD RETURNDATASIZE PUSH1 0x1F NOT PUSH1 0x1F DUP3 ADD AND DUP3 ADD DUP1 PUSH1 0x40 MSTORE POP DUP2 ADD SWAP1 PUSH2 0x555 SWAP2 SWAP1 PUSH2 0x1287 JUMP JUMPDEST SWAP1 POP DUP1 PUSH2 0x597 JUMPI PUSH1 0x40 MLOAD PUSH32 0x8C379A000000000000000000000000000000000000000000000000000000000 DUP2 MSTORE PUSH1 0x4 ADD PUSH2 0x58E SWAP1 PUSH2 0x18CF JUMP JUMPDEST PUSH1 0x40 MLOAD DUP1 SWAP2 SUB SWAP1 REVERT JUMPDEST PUSH1 0x0 PUSH1 0x1 PUSH1 0x0 DUP5 PUSH1 0x0 PUSH1 0x4 DUP2 LT PUSH2 0x5D7 JUMPI PUSH32 0x4E487B7100000000000000000000000000000000000000000000000000000000 PUSH1 0x0 MSTORE PUSH1 0x32 PUSH1 0x4 MSTORE PUSH1 0x24 PUSH1 0x0 REVERT JUMPDEST PUSH1 0x20 MUL ADD MLOAD DUP2 MSTORE PUSH1 0x20 ADD SWAP1 DUP2 MSTORE PUSH1 0x20 ADD PUSH1 0x0 KECCAK256 SWAP1 POP DUP3 PUSH1 0x1 PUSH1 0x4 DUP2 LT PUSH2 0x626 JUMPI PUSH32 0x4E487B7100000000000000000000000000000000000000000000000000000000 PUSH1 0x0 MSTORE PUSH1 0x32 PUSH1 0x4 MSTORE PUSH1 0x24 PUSH1 0x0 REVERT JUMPDEST PUSH1 0x20 MUL ADD MLOAD DUP2 PUSH1 0x0 ADD SLOAD EQ PUSH2 0x670 JUMPI PUSH1 0x40 MLOAD PUSH32 0x8C379A000000000000000000000000000000000000000000000000000000000 DUP2 MSTORE PUSH1 0x4 ADD PUSH2 0x667 SWAP1 PUSH2 0x18AF JUMP JUMPDEST PUSH1 0x40 MLOAD DUP1 SWAP2 SUB SWAP1 REVERT JUMPDEST DUP3 PUSH1 0x2 PUSH1 0x4 DUP2 LT PUSH2 0x6AA JUMPI PUSH32 0x4E487B7100000000000000000000000000000000000000000000000000000000 PUSH1 0x0 MSTORE PUSH1 0x32 PUSH1 0x4 MSTORE PUSH1 0x24 PUSH1 0x0 REVERT JUMPDEST PUSH1 0x20 MUL ADD MLOAD DUP2 PUSH1 0x0 ADD DUP2 SWAP1 SSTORE POP CALLER PUSH20 0xFFFFFFFFFFFFFFFFFFFFFFFFFFFFFFFFFFFFFFFF AND PUSH2 0x8FC DUP5 PUSH1 0x3 PUSH1 0x4 DUP2 LT PUSH2 0x70B JUMPI PUSH32 0x4E487B7100000000000000000000000000000000000000000000000000000000 PUSH1 0x0 MSTORE PUSH1 0x32 PUSH1 0x4 MSTORE PUSH1 0x24 PUSH1 0x0 REVERT JUMPDEST PUSH1 0x20 MUL ADD MLOAD SWAP1 DUP2 ISZERO MUL SWAP1 PUSH1 0x40 MLOAD PUSH1 0x0 PUSH1 0x40 MLOAD DUP1 DUP4 SUB DUP2 DUP6 DUP9 DUP9 CALL SWAP4 POP POP POP POP ISZERO DUP1 ISZERO PUSH2 0x73B JUMPI RETURNDATASIZE PUSH1 0x0 DUP1 RETURNDATACOPY RETURNDATASIZE PUSH1 0x0 REVERT JUMPDEST POP POP POP POP POP POP POP JUMP JUMPDEST PUSH1 0x2 PUSH1 0x0 SWAP1 SLOAD SWAP1 PUSH2 0x100 EXP SWAP1 DIV PUSH20 0xFFFFFFFFFFFFFFFFFFFFFFFFFFFFFFFFFFFFFFFF AND PUSH20 0xFFFFFFFFFFFFFFFFFFFFFFFFFFFFFFFFFFFFFFFF AND CALLER PUSH20 0xFFFFFFFFFFFFFFFFFFFFFFFFFFFFFFFFFFFFFFFF AND EQ PUSH2 0x7D4 JUMPI PUSH1 0x40 MLOAD PUSH32 0x8C379A000000000000000000000000000000000000000000000000000000000 DUP2 MSTORE PUSH1 0x4 ADD PUSH2 0x7CB SWAP1 PUSH2 0x188F JUMP JUMPDEST PUSH1 0x40 MLOAD DUP1 SWAP2 SUB SWAP1 REVERT JUMPDEST DUP1 PUSH1 0x8 PUSH1 0x0 PUSH2 0x100 EXP DUP2 SLOAD DUP2 PUSH20 0xFFFFFFFFFFFFFFFFFFFFFFFFFFFFFFFFFFFFFFFF MUL NOT AND SWAP1 DUP4 PUSH20 0xFFFFFFFFFFFFFFFFFFFFFFFFFFFFFFFFFFFFFFFF AND MUL OR SWAP1 SSTORE POP POP JUMP JUMPDEST PUSH1 0x8 PUSH1 0x0 SWAP1 SLOAD SWAP1 PUSH2 0x100 EXP SWAP1 DIV PUSH20 0xFFFFFFFFFFFFFFFFFFFFFFFFFFFFFFFFFFFFFFFF AND PUSH20 0xFFFFFFFFFFFFFFFFFFFFFFFFFFFFFFFFFFFFFFFF AND CALLER PUSH20 0xFFFFFFFFFFFFFFFFFFFFFFFFFFFFFFFFFFFFFFFF AND EQ PUSH2 0x8A8 JUMPI PUSH1 0x40 MLOAD PUSH32 0x8C379A000000000000000000000000000000000000000000000000000000000 DUP2 MSTORE PUSH1 0x4 ADD PUSH2 0x89F SWAP1 PUSH2 0x186F JUMP JUMPDEST PUSH1 0x40 MLOAD DUP1 SWAP2 SUB SWAP1 REVERT JUMPDEST PUSH1 0x0 PUSH1 0x1 PUSH1 0x0 DUP6 DUP2 MSTORE PUSH1 0x20 ADD SWAP1 DUP2 MSTORE PUSH1 0x20 ADD PUSH1 0x0 KECCAK256 SWAP1 POP DUP3 DUP2 PUSH1 0x0 ADD SLOAD EQ PUSH2 0x905 JUMPI PUSH1 0x40 MLOAD PUSH32 0x8C379A000000000000000000000000000000000000000000000000000000000 DUP2 MSTORE PUSH1 0x4 ADD PUSH2 0x8FC SWAP1 PUSH2 0x184F JUMP JUMPDEST PUSH1 0x40 MLOAD DUP1 SWAP2 SUB SWAP1 REVERT JUMPDEST DUP2 DUP2 PUSH1 0x0 ADD DUP2 SWAP1 SSTORE POP POP POP POP POP JUMP JUMPDEST PUSH1 0x3 DUP3 PUSH1 0x2 DUP2 LT PUSH2 0x924 JUMPI PUSH1 0x0 DUP1 REVERT JUMPDEST ADD DUP2 PUSH1 0x20 DUP2 LT PUSH2 0x933 JUMPI PUSH1 0x0 DUP1 REVERT JUMPDEST PUSH1 0x20 SWAP2 DUP3 DUP3 DIV ADD SWAP2 SWAP1 MOD SWAP2 POP SWAP2 POP SWAP1 SLOAD SWAP1 PUSH2 0x100 EXP SWAP1 DIV PUSH1 0xFF AND DUP2 JUMP JUMPDEST PUSH1 0x0 PUSH1 0x5 PUSH1 0x0 SWAP1 SLOAD SWAP1 PUSH2 0x100 EXP SWAP1 DIV PUSH20 0xFFFFFFFFFFFFFFFFFFFFFFFFFFFFFFFFFFFFFFFF AND PUSH20 0xFFFFFFFFFFFFFFFFFFFFFFFFFFFFFFFFFFFFFFFF AND PUSH4 0x11479FEA DUP8 DUP8 DUP8 DUP8 PUSH1 0x40 MLOAD DUP6 PUSH4 0xFFFFFFFF AND PUSH1 0xE0 SHL DUP2 MSTORE PUSH1 0x4 ADD PUSH2 0x9B3 SWAP5 SWAP4 SWAP3 SWAP2 SWAP1 PUSH2 0x1766 JUMP JUMPDEST PUSH1 0x20 PUSH1 0x40 MLOAD DUP1 DUP4 SUB DUP2 DUP7 DUP1 EXTCODESIZE ISZERO DUP1 ISZERO PUSH2 0x9CB JUMPI PUSH1 0x0 DUP1 REVERT JUMPDEST POP GAS STATICCALL ISZERO DUP1 ISZERO PUSH2 0x9DF JUMPI RETURNDATASIZE PUSH1 0x0 DUP1 RETURNDATACOPY RETURNDATASIZE PUSH1 0x0 REVERT JUMPDEST POP POP POP POP PUSH1 0x40 MLOAD RETURNDATASIZE PUSH1 0x1F NOT PUSH1 0x1F DUP3 ADD AND DUP3 ADD DUP1 PUSH1 0x40 MSTORE POP DUP2 ADD SWAP1 PUSH2 0xA03 SWAP2 SWAP1 PUSH2 0x1287 JUMP JUMPDEST SWAP1 POP DUP1 PUSH2 0xA45 JUMPI PUSH1 0x40 MLOAD PUSH32 0x8C379A000000000000000000000000000000000000000000000000000000000 DUP2 MSTORE PUSH1 0x4 ADD PUSH2 0xA3C SWAP1 PUSH2 0x18CF JUMP JUMPDEST PUSH1 0x40 MLOAD DUP1 SWAP2 SUB SWAP1 REVERT JUMPDEST PUSH1 0x0 DUP1 DUP5 PUSH1 0x1 PUSH1 0x3 DUP2 LT PUSH2 0xA82 JUMPI PUSH32 0x4E487B7100000000000000000000000000000000000000000000000000000000 PUSH1 0x0 MSTORE PUSH1 0x32 PUSH1 0x4 MSTORE PUSH1 0x24 PUSH1 0x0 REVERT JUMPDEST PUSH1 0x20 MUL ADD MLOAD DUP2 MSTORE PUSH1 0x20 ADD SWAP1 DUP2 MSTORE PUSH1 0x20 ADD PUSH1 0x0 KECCAK256 PUSH1 0x0 SWAP1 SLOAD SWAP1 PUSH2 0x100 EXP SWAP1 DIV PUSH1 0xFF AND ISZERO PUSH2 0xAE3 JUMPI PUSH1 0x40 MLOAD PUSH32 0x8C379A000000000000000000000000000000000000000000000000000000000 DUP2 MSTORE PUSH1 0x4 ADD PUSH2 0xADA SWAP1 PUSH2 0x182F JUMP JUMPDEST PUSH1 0x40 MLOAD DUP1 SWAP2 SUB SWAP1 REVERT JUMPDEST PUSH1 0x1 PUSH1 0x0 DUP1 DUP6 PUSH1 0x1 PUSH1 0x3 DUP2 LT PUSH2 0xB22 JUMPI PUSH32 0x4E487B7100000000000000000000000000000000000000000000000000000000 PUSH1 0x0 MSTORE PUSH1 0x32 PUSH1 0x4 MSTORE PUSH1 0x24 PUSH1 0x0 REVERT JUMPDEST PUSH1 0x20 MUL ADD MLOAD DUP2 MSTORE PUSH1 0x20 ADD SWAP1 DUP2 MSTORE PUSH1 0x20 ADD PUSH1 0x0 KECCAK256 PUSH1 0x0 PUSH2 0x100 EXP DUP2 SLOAD DUP2 PUSH1 0xFF MUL NOT AND SWAP1 DUP4 ISZERO ISZERO MUL OR SWAP1 SSTORE POP PUSH1 0x40 MLOAD DUP1 PUSH1 0x60 ADD PUSH1 0x40 MSTORE DUP1 DUP5 PUSH1 0x2 PUSH1 0x3 DUP2 LT PUSH2 0xB91 JUMPI PUSH32 0x4E487B7100000000000000000000000000000000000000000000000000000000 PUSH1 0x0 MSTORE PUSH1 0x32 PUSH1 0x4 MSTORE PUSH1 0x24 PUSH1 0x0 REVERT JUMPDEST PUSH1 0x20 MUL ADD MLOAD DUP2 MSTORE PUSH1 0x20 ADD DUP4 DUP2 MSTORE PUSH1 0x20 ADD PUSH1 0x1 ISZERO ISZERO DUP2 MSTORE POP PUSH1 0x1 PUSH1 0x0 DUP6 PUSH1 0x0 PUSH1 0x3 DUP2 LT PUSH2 0xBE6 JUMPI PUSH32 0x4E487B7100000000000000000000000000000000000000000000000000000000 PUSH1 0x0 MSTORE PUSH1 0x32 PUSH1 0x4 MSTORE PUSH1 0x24 PUSH1 0x0 REVERT JUMPDEST PUSH1 0x20 MUL ADD MLOAD DUP2 MSTORE PUSH1 0x20 ADD SWAP1 DUP2 MSTORE PUSH1 0x20 ADD PUSH1 0x0 KECCAK256 PUSH1 0x0 DUP3 ADD MLOAD DUP2 PUSH1 0x0 ADD SSTORE PUSH1 0x20 DUP3 ADD MLOAD DUP2 PUSH1 0x1 ADD SWAP1 PUSH1 0x2 PUSH2 0xC1A SWAP3 SWAP2 SWAP1 PUSH2 0xCBD JUMP JUMPDEST POP PUSH1 0x40 DUP3 ADD MLOAD DUP2 PUSH1 0x3 ADD PUSH1 0x0 PUSH2 0x100 EXP DUP2 SLOAD DUP2 PUSH1 0xFF MUL NOT AND SWAP1 DUP4 ISZERO ISZERO MUL OR SWAP1 SSTORE POP SWAP1 POP POP PUSH32 0x259EF7FEA9F07612663253D2844B5BC7E4046D58B6BE03A7C82DB8393DA288CD DUP4 PUSH1 0x0 PUSH1 0x3 DUP2 LT PUSH2 0xC99 JUMPI PUSH32 0x4E487B7100000000000000000000000000000000000000000000000000000000 PUSH1 0x0 MSTORE PUSH1 0x32 PUSH1 0x4 MSTORE PUSH1 0x24 PUSH1 0x0 REVERT JUMPDEST PUSH1 0x20 MUL ADD MLOAD DUP4 PUSH1 0x40 MLOAD PUSH2 0xCAD SWAP3 SWAP2 SWAP1 PUSH2 0x18EF JUMP JUMPDEST PUSH1 0x40 MLOAD DUP1 SWAP2 SUB SWAP1 LOG1 POP POP POP POP POP POP JUMP JUMPDEST DUP3 PUSH1 0x2 DUP2 ADD SWAP3 DUP3 ISZERO PUSH2 0xCFA JUMPI SWAP2 PUSH1 0x20 MUL DUP3 ADD JUMPDEST DUP3 DUP2 GT ISZERO PUSH2 0xCF9 JUMPI DUP3 MLOAD DUP3 SWAP1 PUSH1 0x20 PUSH2 0xCE9 SWAP3 SWAP2 SWAP1 PUSH2 0xD0B JUMP JUMPDEST POP SWAP2 PUSH1 0x20 ADD SWAP2 SWAP1 PUSH1 0x1 ADD SWAP1 PUSH2 0xCD0 JUMP JUMPDEST JUMPDEST POP SWAP1 POP PUSH2 0xD07 SWAP2 SWAP1 PUSH2 0xDA5 JUMP JUMPDEST POP SWAP1 JUMP JUMPDEST DUP3 PUSH1 0x20 PUSH1 0x1F ADD PUSH1 0x20 SWAP1 DIV DUP2 ADD SWAP3 DUP3 ISZERO PUSH2 0xD94 JUMPI SWAP2 PUSH1 0x20 MUL DUP3 ADD PUSH1 0x0 JUMPDEST DUP4 DUP3 GT ISZERO PUSH2 0xD65 JUMPI DUP4 MLOAD DUP4 DUP3 PUSH2 0x100 EXP DUP2 SLOAD DUP2 PUSH1 0xFF MUL NOT AND SWAP1 DUP4 PUSH1 0xFF AND MUL OR SWAP1 SSTORE POP SWAP3 PUSH1 0x20 ADD SWAP3 PUSH1 0x1 ADD PUSH1 0x20 DUP2 PUSH1 0x0 ADD DIV SWAP3 DUP4 ADD SWAP3 PUSH1 0x1 SUB MUL PUSH2 0xD27 JUMP JUMPDEST DUP1 ISZERO PUSH2 0xD92 JUMPI DUP3 DUP2 PUSH2 0x100 EXP DUP2 SLOAD SWAP1 PUSH1 0xFF MUL NOT AND SWAP1 SSTORE PUSH1 0x1 ADD PUSH1 0x20 DUP2 PUSH1 0x0 ADD DIV SWAP3 DUP4 ADD SWAP3 PUSH1 0x1 SUB MUL PUSH2 0xD65 JUMP JUMPDEST POP JUMPDEST POP SWAP1 POP PUSH2 0xDA1 SWAP2 SWAP1 PUSH2 0xDC9 JUMP JUMPDEST POP SWAP1 JUMP JUMPDEST JUMPDEST DUP1 DUP3 GT ISZERO PUSH2 0xDC5 JUMPI PUSH1 0x0 DUP2 DUP2 PUSH2 0xDBC SWAP2 SWAP1 PUSH2 0xDE6 JUMP JUMPDEST POP PUSH1 0x1 ADD PUSH2 0xDA6 JUMP JUMPDEST POP SWAP1 JUMP JUMPDEST JUMPDEST DUP1 DUP3 GT ISZERO PUSH2 0xDE2 JUMPI PUSH1 0x0 DUP2 PUSH1 0x0 SWAP1 SSTORE POP PUSH1 0x1 ADD PUSH2 0xDCA JUMP JUMPDEST POP SWAP1 JUMP JUMPDEST POP PUSH1 0x0 SWAP1 SSTORE JUMP JUMPDEST PUSH1 0x0 PUSH2 0xE00 PUSH2 0xDFB DUP5 PUSH2 0x1982 JUMP JUMPDEST PUSH2 0x195D JUMP JUMPDEST SWAP1 POP DUP1 DUP3 DUP6 PUSH1 0x40 DUP7 MUL DUP3 ADD GT ISZERO PUSH2 0xE16 JUMPI PUSH1 0x0 DUP1 REVERT JUMPDEST PUSH1 0x0 JUMPDEST DUP6 DUP2 LT ISZERO PUSH2 0xE46 JUMPI DUP2 PUSH2 0xE2C DUP9 DUP3 PUSH2 0x10A4 JUMP JUMPDEST DUP5 MSTORE PUSH1 0x20 DUP5 ADD SWAP4 POP PUSH1 0x40 DUP4 ADD SWAP3 POP POP PUSH1 0x1 DUP2 ADD SWAP1 POP PUSH2 0xE19 JUMP JUMPDEST POP POP POP SWAP4 SWAP3 POP POP POP JUMP JUMPDEST PUSH1 0x0 PUSH2 0xE63 PUSH2 0xE5E DUP5 PUSH2 0x19A8 JUMP JUMPDEST PUSH2 0x195D JUMP JUMPDEST SWAP1 POP DUP1 DUP3 DUP6 PUSH2 0x400 DUP7 MUL DUP3 ADD GT ISZERO PUSH2 0xE7A JUMPI PUSH1 0x0 DUP1 REVERT JUMPDEST PUSH1 0x0 JUMPDEST DUP6 DUP2 LT ISZERO PUSH2 0xEAB JUMPI DUP2 PUSH2 0xE90 DUP9 DUP3 PUSH2 0x1119 JUMP JUMPDEST DUP5 MSTORE PUSH1 0x20 DUP5 ADD SWAP4 POP PUSH2 0x400 DUP4 ADD SWAP3 POP POP PUSH1 0x1 DUP2 ADD SWAP1 POP PUSH2 0xE7D JUMP JUMPDEST POP POP POP SWAP4 SWAP3 POP POP POP JUMP JUMPDEST PUSH1 0x0 PUSH2 0xEC8 PUSH2 0xEC3 DUP5 PUSH2 0x19CE JUMP JUMPDEST PUSH2 0x195D JUMP JUMPDEST SWAP1 POP DUP1 DUP3 DUP6 PUSH1 0x20 DUP7 MUL DUP3 ADD GT ISZERO PUSH2 0xEDE JUMPI PUSH1 0x0 DUP1 REVERT JUMPDEST PUSH1 0x0 JUMPDEST DUP6 DUP2 LT ISZERO PUSH2 0xF0E JUMPI DUP2 PUSH2 0xEF4 DUP9 DUP3 PUSH2 0x1155 JUMP JUMPDEST DUP5 MSTORE PUSH1 0x20 DUP5 ADD SWAP4 POP PUSH1 0x20 DUP4 ADD SWAP3 POP POP PUSH1 0x1 DUP2 ADD SWAP1 POP PUSH2 0xEE1 JUMP JUMPDEST POP POP POP SWAP4 SWAP3 POP POP POP JUMP JUMPDEST PUSH1 0x0 PUSH2 0xF2B PUSH2 0xF26 DUP5 PUSH2 0x19F4 JUMP JUMPDEST PUSH2 0x195D JUMP JUMPDEST SWAP1 POP DUP1 DUP3 DUP6 PUSH1 0x20 DUP7 MUL DUP3 ADD GT ISZERO PUSH2 0xF41 JUMPI PUSH1 0x0 DUP1 REVERT JUMPDEST PUSH1 0x0 JUMPDEST DUP6 DUP2 LT ISZERO PUSH2 0xF71 JUMPI DUP2 PUSH2 0xF57 DUP9 DUP3 PUSH2 0x1155 JUMP JUMPDEST DUP5 MSTORE PUSH1 0x20 DUP5 ADD SWAP4 POP PUSH1 0x20 DUP4 ADD SWAP3 POP POP PUSH1 0x1 DUP2 ADD SWAP1 POP PUSH2 0xF44 JUMP JUMPDEST POP POP POP SWAP4 SWAP3 POP POP POP JUMP JUMPDEST PUSH1 0x0 PUSH2 0xF8E PUSH2 0xF89 DUP5 PUSH2 0x1A1A JUMP JUMPDEST PUSH2 0x195D JUMP JUMPDEST SWAP1 POP DUP1 DUP3 DUP6 PUSH1 0x20 DUP7 MUL DUP3 ADD GT ISZERO PUSH2 0xFA4 JUMPI PUSH1 0x0 DUP1 REVERT JUMPDEST PUSH1 0x0 JUMPDEST DUP6 DUP2 LT ISZERO PUSH2 0xFD4 JUMPI DUP2 PUSH2 0xFBA DUP9 DUP3 PUSH2 0x1155 JUMP JUMPDEST DUP5 MSTORE PUSH1 0x20 DUP5 ADD SWAP4 POP PUSH1 0x20 DUP4 ADD SWAP3 POP POP PUSH1 0x1 DUP2 ADD SWAP1 POP PUSH2 0xFA7 JUMP JUMPDEST POP POP POP SWAP4 SWAP3 POP POP POP JUMP JUMPDEST PUSH1 0x0 PUSH2 0xFF1 PUSH2 0xFEC DUP5 PUSH2 0x1A40 JUMP JUMPDEST PUSH2 0x195D JUMP JUMPDEST SWAP1 POP DUP1 DUP3 DUP6 PUSH1 0x20 DUP7 MUL DUP3 ADD GT ISZERO PUSH2 0x1007 JUMPI PUSH1 0x0 DUP1 REVERT JUMPDEST PUSH1 0x0 JUMPDEST DUP6 DUP2 LT ISZERO PUSH2 0x1037 JUMPI DUP2 PUSH2 0x101D DUP9 DUP3 PUSH2 0x116A JUMP JUMPDEST DUP5 MSTORE PUSH1 0x20 DUP5 ADD SWAP4 POP PUSH1 0x20 DUP4 ADD SWAP3 POP POP PUSH1 0x1 DUP2 ADD SWAP1 POP PUSH2 0x100A JUMP JUMPDEST POP POP POP SWAP4 SWAP3 POP POP POP JUMP JUMPDEST PUSH1 0x0 DUP2 CALLDATALOAD SWAP1 POP PUSH2 0x1050 DUP2 PUSH2 0x1D75 JUMP JUMPDEST SWAP3 SWAP2 POP POP JUMP JUMPDEST PUSH1 0x0 DUP3 PUSH1 0x1F DUP4 ADD SLT PUSH2 0x1067 JUMPI PUSH1 0x0 DUP1 REVERT JUMPDEST PUSH1 0x2 PUSH2 0x1074 DUP5 DUP3 DUP6 PUSH2 0xDED JUMP JUMPDEST SWAP2 POP POP SWAP3 SWAP2 POP POP JUMP JUMPDEST PUSH1 0x0 DUP3 PUSH1 0x1F DUP4 ADD SLT PUSH2 0x108E JUMPI PUSH1 0x0 DUP1 REVERT JUMPDEST PUSH1 0x2 PUSH2 0x109B DUP5 DUP3 DUP6 PUSH2 0xE50 JUMP JUMPDEST SWAP2 POP POP SWAP3 SWAP2 POP POP JUMP JUMPDEST PUSH1 0x0 DUP3 PUSH1 0x1F DUP4 ADD SLT PUSH2 0x10B5 JUMPI PUSH1 0x0 DUP1 REVERT JUMPDEST PUSH1 0x2 PUSH2 0x10C2 DUP5 DUP3 DUP6 PUSH2 0xEB5 JUMP JUMPDEST SWAP2 POP POP SWAP3 SWAP2 POP POP JUMP JUMPDEST PUSH1 0x0 DUP3 PUSH1 0x1F DUP4 ADD SLT PUSH2 0x10DC JUMPI PUSH1 0x0 DUP1 REVERT JUMPDEST PUSH1 0x3 PUSH2 0x10E9 DUP5 DUP3 DUP6 PUSH2 0xF18 JUMP JUMPDEST SWAP2 POP POP SWAP3 SWAP2 POP POP JUMP JUMPDEST PUSH1 0x0 DUP3 PUSH1 0x1F DUP4 ADD SLT PUSH2 0x1103 JUMPI PUSH1 0x0 DUP1 REVERT JUMPDEST PUSH1 0x4 PUSH2 0x1110 DUP5 DUP3 DUP6 PUSH2 0xF7B JUMP JUMPDEST SWAP2 POP POP SWAP3 SWAP2 POP POP JUMP JUMPDEST PUSH1 0x0 DUP3 PUSH1 0x1F DUP4 ADD SLT PUSH2 0x112A JUMPI PUSH1 0x0 DUP1 REVERT JUMPDEST PUSH1 0x20 PUSH2 0x1137 DUP5 DUP3 DUP6 PUSH2 0xFDE JUMP JUMPDEST SWAP2 POP POP SWAP3 SWAP2 POP POP JUMP JUMPDEST PUSH1 0x0 DUP2 MLOAD SWAP1 POP PUSH2 0x114F DUP2 PUSH2 0x1D8C JUMP JUMPDEST SWAP3 SWAP2 POP POP JUMP JUMPDEST PUSH1 0x0 DUP2 CALLDATALOAD SWAP1 POP PUSH2 0x1164 DUP2 PUSH2 0x1DA3 JUMP JUMPDEST SWAP3 SWAP2 POP POP JUMP JUMPDEST PUSH1 0x0 DUP2 CALLDATALOAD SWAP1 POP PUSH2 0x1179 DUP2 PUSH2 0x1DBA JUMP JUMPDEST SWAP3 SWAP2 POP POP JUMP JUMPDEST PUSH1 0x0 PUSH1 0x20 DUP3 DUP5 SUB SLT ISZERO PUSH2 0x1191 JUMPI PUSH1 0x0 DUP1 REVERT JUMPDEST PUSH1 0x0 PUSH2 0x119F DUP5 DUP3 DUP6 ADD PUSH2 0x1041 JUMP JUMPDEST SWAP2 POP POP SWAP3 SWAP2 POP POP JUMP JUMPDEST PUSH1 0x0 DUP1 PUSH1 0x0 DUP1 PUSH1 0x0 PUSH2 0x960 DUP7 DUP9 SUB SLT ISZERO PUSH2 0x11C1 JUMPI PUSH1 0x0 DUP1 REVERT JUMPDEST PUSH1 0x0 PUSH2 0x11CF DUP9 DUP3 DUP10 ADD PUSH2 0x10A4 JUMP JUMPDEST SWAP6 POP POP PUSH1 0x40 PUSH2 0x11E0 DUP9 DUP3 DUP10 ADD PUSH2 0x1056 JUMP JUMPDEST SWAP5 POP POP PUSH1 0xC0 PUSH2 0x11F1 DUP9 DUP3 DUP10 ADD PUSH2 0x10A4 JUMP JUMPDEST SWAP4 POP POP PUSH2 0x100 PUSH2 0x1203 DUP9 DUP3 DUP10 ADD PUSH2 0x10CB JUMP JUMPDEST SWAP3 POP POP PUSH2 0x160 PUSH2 0x1215 DUP9 DUP3 DUP10 ADD PUSH2 0x107D JUMP JUMPDEST SWAP2 POP POP SWAP3 SWAP6 POP SWAP3 SWAP6 SWAP1 SWAP4 POP JUMP JUMPDEST PUSH1 0x0 DUP1 PUSH1 0x0 DUP1 PUSH2 0x180 DUP6 DUP8 SUB SLT ISZERO PUSH2 0x1239 JUMPI PUSH1 0x0 DUP1 REVERT JUMPDEST PUSH1 0x0 PUSH2 0x1247 DUP8 DUP3 DUP9 ADD PUSH2 0x10A4 JUMP JUMPDEST SWAP5 POP POP PUSH1 0x40 PUSH2 0x1258 DUP8 DUP3 DUP9 ADD PUSH2 0x1056 JUMP JUMPDEST SWAP4 POP POP PUSH1 0xC0 PUSH2 0x1269 DUP8 DUP3 DUP9 ADD PUSH2 0x10A4 JUMP JUMPDEST SWAP3 POP POP PUSH2 0x100 PUSH2 0x127B DUP8 DUP3 DUP9 ADD PUSH2 0x10F2 JUMP JUMPDEST SWAP2 POP POP SWAP3 SWAP6 SWAP2 SWAP5 POP SWAP3 POP JUMP JUMPDEST PUSH1 0x0 PUSH1 0x20 DUP3 DUP5 SUB SLT ISZERO PUSH2 0x1299 JUMPI PUSH1 0x0 DUP1 REVERT JUMPDEST PUSH1 0x0 PUSH2 0x12A7 DUP5 DUP3 DUP6 ADD PUSH2 0x1140 JUMP JUMPDEST SWAP2 POP POP SWAP3 SWAP2 POP POP JUMP JUMPDEST PUSH1 0x0 PUSH1 0x20 DUP3 DUP5 SUB SLT ISZERO PUSH2 0x12C2 JUMPI PUSH1 0x0 DUP1 REVERT JUMPDEST PUSH1 0x0 PUSH2 0x12D0 DUP5 DUP3 DUP6 ADD PUSH2 0x1155 JUMP JUMPDEST SWAP2 POP POP SWAP3 SWAP2 POP POP JUMP JUMPDEST PUSH1 0x0 DUP1 PUSH1 0x40 DUP4 DUP6 SUB SLT ISZERO PUSH2 0x12EC JUMPI PUSH1 0x0 DUP1 REVERT JUMPDEST PUSH1 0x0 PUSH2 0x12FA DUP6 DUP3 DUP7 ADD PUSH2 0x1155 JUMP JUMPDEST SWAP3 POP POP PUSH1 0x20 PUSH2 0x130B DUP6 DUP3 DUP7 ADD PUSH2 0x1155 JUMP JUMPDEST SWAP2 POP POP SWAP3 POP SWAP3 SWAP1 POP JUMP JUMPDEST PUSH1 0x0 DUP1 PUSH1 0x0 PUSH1 0x60 DUP5 DUP7 SUB SLT ISZERO PUSH2 0x132A JUMPI PUSH1 0x0 DUP1 REVERT JUMPDEST PUSH1 0x0 PUSH2 0x1338 DUP7 DUP3 DUP8 ADD PUSH2 0x1155 JUMP JUMPDEST SWAP4 POP POP PUSH1 0x20 PUSH2 0x1349 DUP7 DUP3 DUP8 ADD PUSH2 0x1155 JUMP JUMPDEST SWAP3 POP POP PUSH1 0x40 PUSH2 0x135A DUP7 DUP3 DUP8 ADD PUSH2 0x1155 JUMP JUMPDEST SWAP2 POP POP SWAP3 POP SWAP3 POP SWAP3 JUMP JUMPDEST PUSH1 0x0 PUSH2 0x1370 DUP4 DUP4 PUSH2 0x1473 JUMP JUMPDEST PUSH1 0x40 DUP4 ADD SWAP1 POP SWAP3 SWAP2 POP POP JUMP JUMPDEST PUSH1 0x0 PUSH2 0x1388 DUP4 DUP4 PUSH2 0x15CF JUMP JUMPDEST PUSH2 0x400 DUP4 ADD SWAP1 POP SWAP3 SWAP2 POP POP JUMP JUMPDEST PUSH1 0x0 PUSH2 0x13A1 DUP4 DUP4 PUSH2 0x172A JUMP JUMPDEST PUSH1 0x20 DUP4 ADD SWAP1 POP SWAP3 SWAP2 POP POP JUMP JUMPDEST PUSH1 0x0 PUSH2 0x13B9 DUP4 DUP4 PUSH2 0x1748 JUMP JUMPDEST PUSH1 0x20 DUP4 ADD SWAP1 POP SWAP3 SWAP2 POP POP JUMP JUMPDEST PUSH2 0x13CE DUP2 PUSH2 0x1AA2 JUMP JUMPDEST PUSH2 0x13D8 DUP2 DUP5 PUSH2 0x1B32 JUMP JUMPDEST SWAP3 POP PUSH2 0x13E3 DUP3 PUSH2 0x1A66 JUMP JUMPDEST DUP1 PUSH1 0x0 JUMPDEST DUP4 DUP2 LT ISZERO PUSH2 0x1414 JUMPI DUP2 MLOAD PUSH2 0x13FB DUP8 DUP3 PUSH2 0x1364 JUMP JUMPDEST SWAP7 POP PUSH2 0x1406 DUP4 PUSH2 0x1AE4 JUMP JUMPDEST SWAP3 POP POP PUSH1 0x1 DUP2 ADD SWAP1 POP PUSH2 0x13E7 JUMP JUMPDEST POP POP POP POP POP POP JUMP JUMPDEST PUSH2 0x1425 DUP2 PUSH2 0x1AAD JUMP JUMPDEST PUSH2 0x142F DUP2 DUP5 PUSH2 0x1B3D JUMP JUMPDEST SWAP3 POP PUSH2 0x143A DUP3 PUSH2 0x1A70 JUMP JUMPDEST DUP1 PUSH1 0x0 JUMPDEST DUP4 DUP2 LT ISZERO PUSH2 0x146B JUMPI DUP2 MLOAD PUSH2 0x1452 DUP8 DUP3 PUSH2 0x137C JUMP JUMPDEST SWAP7 POP PUSH2 0x145D DUP4 PUSH2 0x1AF1 JUMP JUMPDEST SWAP3 POP POP PUSH1 0x1 DUP2 ADD SWAP1 POP PUSH2 0x143E JUMP JUMPDEST POP POP POP POP POP POP JUMP JUMPDEST PUSH2 0x147C DUP2 PUSH2 0x1AB8 JUMP JUMPDEST PUSH2 0x1486 DUP2 DUP5 PUSH2 0x1B48 JUMP JUMPDEST SWAP3 POP PUSH2 0x1491 DUP3 PUSH2 0x1A7A JUMP JUMPDEST DUP1 PUSH1 0x0 JUMPDEST DUP4 DUP2 LT ISZERO PUSH2 0x14C2 JUMPI DUP2 MLOAD PUSH2 0x14A9 DUP8 DUP3 PUSH2 0x1395 JUMP JUMPDEST SWAP7 POP PUSH2 0x14B4 DUP4 PUSH2 0x1AFE JUMP JUMPDEST SWAP3 POP POP PUSH1 0x1 DUP2 ADD SWAP1 POP PUSH2 0x1495 JUMP JUMPDEST POP POP POP POP POP POP JUMP JUMPDEST PUSH2 0x14D3 DUP2 PUSH2 0x1AB8 JUMP JUMPDEST PUSH2 0x14DD DUP2 DUP5 PUSH2 0x1B53 JUMP JUMPDEST SWAP3 POP PUSH2 0x14E8 DUP3 PUSH2 0x1A7A JUMP JUMPDEST DUP1 PUSH1 0x0 JUMPDEST DUP4 DUP2 LT ISZERO PUSH2 0x1519 JUMPI DUP2 MLOAD PUSH2 0x1500 DUP8 DUP3 PUSH2 0x1395 JUMP JUMPDEST SWAP7 POP PUSH2 0x150B DUP4 PUSH2 0x1AFE JUMP JUMPDEST SWAP3 POP POP PUSH1 0x1 DUP2 ADD SWAP1 POP PUSH2 0x14EC JUMP JUMPDEST POP POP POP POP POP POP JUMP JUMPDEST PUSH2 0x152A DUP2 PUSH2 0x1AC3 JUMP JUMPDEST PUSH2 0x1534 DUP2 DUP5 PUSH2 0x1B5E JUMP JUMPDEST SWAP3 POP PUSH2 0x153F DUP3 PUSH2 0x1A84 JUMP JUMPDEST DUP1 PUSH1 0x0 JUMPDEST DUP4 DUP2 LT ISZERO PUSH2 0x1570 JUMPI DUP2 MLOAD PUSH2 0x1557 DUP8 DUP3 PUSH2 0x1395 JUMP JUMPDEST SWAP7 POP PUSH2 0x1562 DUP4 PUSH2 0x1B0B JUMP JUMPDEST SWAP3 POP POP PUSH1 0x1 DUP2 ADD SWAP1 POP PUSH2 0x1543 JUMP JUMPDEST POP POP POP POP POP POP JUMP JUMPDEST PUSH2 0x1581 DUP2 PUSH2 0x1ACE JUMP JUMPDEST PUSH2 0x158B DUP2 DUP5 PUSH2 0x1B69 JUMP JUMPDEST SWAP3 POP PUSH2 0x1596 DUP3 PUSH2 0x1A8E JUMP JUMPDEST DUP1 PUSH1 0x0 JUMPDEST DUP4 DUP2 LT ISZERO PUSH2 0x15C7 JUMPI DUP2 MLOAD PUSH2 0x15AE DUP8 DUP3 PUSH2 0x1395 JUMP JUMPDEST SWAP7 POP PUSH2 0x15B9 DUP4 PUSH2 0x1B18 JUMP JUMPDEST SWAP3 POP POP PUSH1 0x1 DUP2 ADD SWAP1 POP PUSH2 0x159A JUMP JUMPDEST POP POP POP POP POP POP JUMP JUMPDEST PUSH2 0x15D8 DUP2 PUSH2 0x1AD9 JUMP JUMPDEST PUSH2 0x15E2 DUP2 DUP5 PUSH2 0x1B74 JUMP JUMPDEST SWAP3 POP PUSH2 0x15ED DUP3 PUSH2 0x1A98 JUMP JUMPDEST DUP1 PUSH1 0x0 JUMPDEST DUP4 DUP2 LT ISZERO PUSH2 0x161E JUMPI DUP2 MLOAD PUSH2 0x1605 DUP8 DUP3 PUSH2 0x13AD JUMP JUMPDEST SWAP7 POP PUSH2 0x1610 DUP4 PUSH2 0x1B25 JUMP JUMPDEST SWAP3 POP POP PUSH1 0x1 DUP2 ADD SWAP1 POP PUSH2 0x15F1 JUMP JUMPDEST POP POP POP POP POP POP JUMP JUMPDEST PUSH2 0x162F DUP2 PUSH2 0x1BA2 JUMP JUMPDEST DUP3 MSTORE POP POP JUMP JUMPDEST PUSH1 0x0 PUSH2 0x1642 PUSH1 0xF DUP4 PUSH2 0x1B7F JUMP JUMPDEST SWAP2 POP PUSH2 0x164D DUP3 PUSH2 0x1C56 JUMP JUMPDEST PUSH1 0x20 DUP3 ADD SWAP1 POP SWAP2 SWAP1 POP JUMP JUMPDEST PUSH1 0x0 PUSH2 0x1665 PUSH1 0x11 DUP4 PUSH2 0x1B7F JUMP JUMPDEST SWAP2 POP PUSH2 0x1670 DUP3 PUSH2 0x1C7F JUMP JUMPDEST PUSH1 0x20 DUP3 ADD SWAP1 POP SWAP2 SWAP1 POP JUMP JUMPDEST PUSH1 0x0 PUSH2 0x1688 PUSH1 0x17 DUP4 PUSH2 0x1B7F JUMP JUMPDEST SWAP2 POP PUSH2 0x1693 DUP3 PUSH2 0x1CA8 JUMP JUMPDEST PUSH1 0x20 DUP3 ADD SWAP1 POP SWAP2 SWAP1 POP JUMP JUMPDEST PUSH1 0x0 PUSH2 0x16AB PUSH1 0x16 DUP4 PUSH2 0x1B7F JUMP JUMPDEST SWAP2 POP PUSH2 0x16B6 DUP3 PUSH2 0x1CD1 JUMP JUMPDEST PUSH1 0x20 DUP3 ADD SWAP1 POP SWAP2 SWAP1 POP JUMP JUMPDEST PUSH1 0x0 PUSH2 0x16CE PUSH1 0x18 DUP4 PUSH2 0x1B7F JUMP JUMPDEST SWAP2 POP PUSH2 0x16D9 DUP3 PUSH2 0x1CFA JUMP JUMPDEST PUSH1 0x20 DUP3 ADD SWAP1 POP SWAP2 SWAP1 POP JUMP JUMPDEST PUSH1 0x0 PUSH2 0x16F1 PUSH1 0x11 DUP4 PUSH2 0x1B7F JUMP JUMPDEST SWAP2 POP PUSH2 0x16FC DUP3 PUSH2 0x1D23 JUMP JUMPDEST PUSH1 0x20 DUP3 ADD SWAP1 POP SWAP2 SWAP1 POP JUMP JUMPDEST PUSH1 0x0 PUSH2 0x1714 PUSH1 0xD DUP4 PUSH2 0x1B7F JUMP JUMPDEST SWAP2 POP PUSH2 0x171F DUP3 PUSH2 0x1D4C JUMP JUMPDEST PUSH1 0x20 DUP3 ADD SWAP1 POP SWAP2 SWAP1 POP JUMP JUMPDEST PUSH2 0x1733 DUP2 PUSH2 0x1BCE JUMP JUMPDEST DUP3 MSTORE POP POP JUMP JUMPDEST PUSH2 0x1742 DUP2 PUSH2 0x1BCE JUMP JUMPDEST DUP3 MSTORE POP POP JUMP JUMPDEST PUSH2 0x1751 DUP2 PUSH2 0x1BD8 JUMP JUMPDEST DUP3 MSTORE POP POP JUMP JUMPDEST PUSH2 0x1760 DUP2 PUSH2 0x1BD8 JUMP JUMPDEST DUP3 MSTORE POP POP JUMP JUMPDEST PUSH1 0x0 PUSH2 0x160 DUP3 ADD SWAP1 POP PUSH2 0x177C PUSH1 0x0 DUP4 ADD DUP8 PUSH2 0x14CA JUMP JUMPDEST PUSH2 0x1789 PUSH1 0x40 DUP4 ADD DUP7 PUSH2 0x13C5 JUMP JUMPDEST PUSH2 0x1796 PUSH1 0xC0 DUP4 ADD DUP6 PUSH2 0x14CA JUMP JUMPDEST PUSH2 0x17A4 PUSH2 0x100 DUP4 ADD DUP5 PUSH2 0x1521 JUMP JUMPDEST SWAP6 SWAP5 POP POP POP POP POP JUMP JUMPDEST PUSH1 0x0 PUSH2 0x180 DUP3 ADD SWAP1 POP PUSH2 0x17C3 PUSH1 0x0 DUP4 ADD DUP8 PUSH2 0x14CA JUMP JUMPDEST PUSH2 0x17D0 PUSH1 0x40 DUP4 ADD DUP7 PUSH2 0x13C5 JUMP JUMPDEST PUSH2 0x17DD PUSH1 0xC0 DUP4 ADD DUP6 PUSH2 0x14CA JUMP JUMPDEST PUSH2 0x17EB PUSH2 0x100 DUP4 ADD DUP5 PUSH2 0x1578 JUMP JUMPDEST SWAP6 SWAP5 POP POP POP POP POP JUMP JUMPDEST PUSH1 0x0 PUSH1 0x20 DUP3 ADD SWAP1 POP PUSH2 0x1809 PUSH1 0x0 DUP4 ADD DUP5 PUSH2 0x1626 JUMP JUMPDEST SWAP3 SWAP2 POP POP JUMP JUMPDEST PUSH1 0x0 PUSH1 0x20 DUP3 ADD SWAP1 POP DUP2 DUP2 SUB PUSH1 0x0 DUP4 ADD MSTORE PUSH2 0x1828 DUP2 PUSH2 0x1635 JUMP JUMPDEST SWAP1 POP SWAP2 SWAP1 POP JUMP JUMPDEST PUSH1 0x0 PUSH1 0x20 DUP3 ADD SWAP1 POP DUP2 DUP2 SUB PUSH1 0x0 DUP4 ADD MSTORE PUSH2 0x1848 DUP2 PUSH2 0x1658 JUMP JUMPDEST SWAP1 POP SWAP2 SWAP1 POP JUMP JUMPDEST PUSH1 0x0 PUSH1 0x20 DUP3 ADD SWAP1 POP DUP2 DUP2 SUB PUSH1 0x0 DUP4 ADD MSTORE PUSH2 0x1868 DUP2 PUSH2 0x167B JUMP JUMPDEST SWAP1 POP SWAP2 SWAP1 POP JUMP JUMPDEST PUSH1 0x0 PUSH1 0x20 DUP3 ADD SWAP1 POP DUP2 DUP2 SUB PUSH1 0x0 DUP4 ADD MSTORE PUSH2 0x1888 DUP2 PUSH2 0x169E JUMP JUMPDEST SWAP1 POP SWAP2 SWAP1 POP JUMP JUMPDEST PUSH1 0x0 PUSH1 0x20 DUP3 ADD SWAP1 POP DUP2 DUP2 SUB PUSH1 0x0 DUP4 ADD MSTORE PUSH2 0x18A8 DUP2 PUSH2 0x16C1 JUMP JUMPDEST SWAP1 POP SWAP2 SWAP1 POP JUMP JUMPDEST PUSH1 0x0 PUSH1 0x20 DUP3 ADD SWAP1 POP DUP2 DUP2 SUB PUSH1 0x0 DUP4 ADD MSTORE PUSH2 0x18C8 DUP2 PUSH2 0x16E4 JUMP JUMPDEST SWAP1 POP SWAP2 SWAP1 POP JUMP JUMPDEST PUSH1 0x0 PUSH1 0x20 DUP3 ADD SWAP1 POP DUP2 DUP2 SUB PUSH1 0x0 DUP4 ADD MSTORE PUSH2 0x18E8 DUP2 PUSH2 0x1707 JUMP JUMPDEST SWAP1 POP SWAP2 SWAP1 POP JUMP JUMPDEST PUSH1 0x0 PUSH2 0x820 DUP3 ADD SWAP1 POP PUSH2 0x1905 PUSH1 0x0 DUP4 ADD DUP6 PUSH2 0x1739 JUMP JUMPDEST PUSH2 0x1912 PUSH1 0x20 DUP4 ADD DUP5 PUSH2 0x141C JUMP JUMPDEST SWAP4 SWAP3 POP POP POP JUMP JUMPDEST PUSH1 0x0 PUSH1 0x40 DUP3 ADD SWAP1 POP PUSH2 0x192E PUSH1 0x0 DUP4 ADD DUP6 PUSH2 0x1739 JUMP JUMPDEST PUSH2 0x193B PUSH1 0x20 DUP4 ADD DUP5 PUSH2 0x1626 JUMP JUMPDEST SWAP4 SWAP3 POP POP POP JUMP JUMPDEST PUSH1 0x0 PUSH1 0x20 DUP3 ADD SWAP1 POP PUSH2 0x1957 PUSH1 0x0 DUP4 ADD DUP5 PUSH2 0x1757 JUMP JUMPDEST SWAP3 SWAP2 POP POP JUMP JUMPDEST PUSH1 0x0 PUSH2 0x1967 PUSH2 0x1978 JUMP JUMPDEST SWAP1 POP PUSH2 0x1973 DUP3 DUP3 PUSH2 0x1BE5 JUMP JUMPDEST SWAP2 SWAP1 POP JUMP JUMPDEST PUSH1 0x0 PUSH1 0x40 MLOAD SWAP1 POP SWAP1 JUMP JUMPDEST PUSH1 0x0 PUSH8 0xFFFFFFFFFFFFFFFF DUP3 GT ISZERO PUSH2 0x199D JUMPI PUSH2 0x199C PUSH2 0x1C16 JUMP JUMPDEST JUMPDEST PUSH1 0x20 DUP3 MUL SWAP1 POP SWAP2 SWAP1 POP JUMP JUMPDEST PUSH1 0x0 PUSH8 0xFFFFFFFFFFFFFFFF DUP3 GT ISZERO PUSH2 0x19C3 JUMPI PUSH2 0x19C2 PUSH2 0x1C16 JUMP JUMPDEST JUMPDEST PUSH1 0x20 DUP3 MUL SWAP1 POP SWAP2 SWAP1 POP JUMP JUMPDEST PUSH1 0x0 PUSH8 0xFFFFFFFFFFFFFFFF DUP3 GT ISZERO PUSH2 0x19E9 JUMPI PUSH2 0x19E8 PUSH2 0x1C16 JUMP JUMPDEST JUMPDEST PUSH1 0x20 DUP3 MUL SWAP1 POP SWAP2 SWAP1 POP JUMP JUMPDEST PUSH1 0x0 PUSH8 0xFFFFFFFFFFFFFFFF DUP3 GT ISZERO PUSH2 0x1A0F JUMPI PUSH2 0x1A0E PUSH2 0x1C16 JUMP JUMPDEST JUMPDEST PUSH1 0x20 DUP3 MUL SWAP1 POP SWAP2 SWAP1 POP JUMP JUMPDEST PUSH1 0x0 PUSH8 0xFFFFFFFFFFFFFFFF DUP3 GT ISZERO PUSH2 0x1A35 JUMPI PUSH2 0x1A34 PUSH2 0x1C16 JUMP JUMPDEST JUMPDEST PUSH1 0x20 DUP3 MUL SWAP1 POP SWAP2 SWAP1 POP JUMP JUMPDEST PUSH1 0x0 PUSH8 0xFFFFFFFFFFFFFFFF DUP3 GT ISZERO PUSH2 0x1A5B JUMPI PUSH2 0x1A5A PUSH2 0x1C16 JUMP JUMPDEST JUMPDEST PUSH1 0x20 DUP3 MUL SWAP1 POP SWAP2 SWAP1 POP JUMP JUMPDEST PUSH1 0x0 DUP2 SWAP1 POP SWAP2 SWAP1 POP JUMP JUMPDEST PUSH1 0x0 DUP2 SWAP1 POP SWAP2 SWAP1 POP JUMP JUMPDEST PUSH1 0x0 DUP2 SWAP1 POP SWAP2 SWAP1 POP JUMP JUMPDEST PUSH1 0x0 DUP2 SWAP1 POP SWAP2 SWAP1 POP JUMP JUMPDEST PUSH1 0x0 DUP2 SWAP1 POP SWAP2 SWAP1 POP JUMP JUMPDEST PUSH1 0x0 DUP2 SWAP1 POP SWAP2 SWAP1 POP JUMP JUMPDEST PUSH1 0x0 PUSH1 0x2 SWAP1 POP SWAP2 SWAP1 POP JUMP JUMPDEST PUSH1 0x0 PUSH1 0x2 SWAP1 POP SWAP2 SWAP1 POP JUMP JUMPDEST PUSH1 0x0 PUSH1 0x2 SWAP1 POP SWAP2 SWAP1 POP JUMP JUMPDEST PUSH1 0x0 PUSH1 0x3 SWAP1 POP SWAP2 SWAP1 POP JUMP JUMPDEST PUSH1 0x0 PUSH1 0x4 SWAP1 POP SWAP2 SWAP1 POP JUMP JUMPDEST PUSH1 0x0 PUSH1 0x20 SWAP1 POP SWAP2 SWAP1 POP JUMP JUMPDEST PUSH1 0x0 PUSH1 0x20 DUP3 ADD SWAP1 POP SWAP2 SWAP1 POP JUMP JUMPDEST PUSH1 0x0 PUSH1 0x20 DUP3 ADD SWAP1 POP SWAP2 SWAP1 POP JUMP JUMPDEST PUSH1 0x0 PUSH1 0x20 DUP3 ADD SWAP1 POP SWAP2 SWAP1 POP JUMP JUMPDEST PUSH1 0x0 PUSH1 0x20 DUP3 ADD SWAP1 POP SWAP2 SWAP1 POP JUMP JUMPDEST PUSH1 0x0 PUSH1 0x20 DUP3 ADD SWAP1 POP SWAP2 SWAP1 POP JUMP JUMPDEST PUSH1 0x0 PUSH1 0x20 DUP3 ADD SWAP1 POP SWAP2 SWAP1 POP JUMP JUMPDEST PUSH1 0x0 DUP2 SWAP1 POP SWAP3 SWAP2 POP POP JUMP JUMPDEST PUSH1 0x0 DUP2 SWAP1 POP SWAP3 SWAP2 POP POP JUMP JUMPDEST PUSH1 0x0 DUP2 SWAP1 POP SWAP3 SWAP2 POP POP JUMP JUMPDEST PUSH1 0x0 DUP2 SWAP1 POP SWAP3 SWAP2 POP POP JUMP JUMPDEST PUSH1 0x0 DUP2 SWAP1 POP SWAP3 SWAP2 POP POP JUMP JUMPDEST PUSH1 0x0 DUP2 SWAP1 POP SWAP3 SWAP2 POP POP JUMP JUMPDEST PUSH1 0x0 DUP2 SWAP1 POP SWAP3 SWAP2 POP POP JUMP JUMPDEST PUSH1 0x0 DUP3 DUP3 MSTORE PUSH1 0x20 DUP3 ADD SWAP1 POP SWAP3 SWAP2 POP POP JUMP JUMPDEST PUSH1 0x0 PUSH2 0x1B9B DUP3 PUSH2 0x1BAE JUMP JUMPDEST SWAP1 POP SWAP2 SWAP1 POP JUMP JUMPDEST PUSH1 0x0 DUP2 ISZERO ISZERO SWAP1 POP SWAP2 SWAP1 POP JUMP JUMPDEST PUSH1 0x0 PUSH20 0xFFFFFFFFFFFFFFFFFFFFFFFFFFFFFFFFFFFFFFFF DUP3 AND SWAP1 POP SWAP2 SWAP1 POP JUMP JUMPDEST PUSH1 0x0 DUP2 SWAP1 POP SWAP2 SWAP1 POP JUMP JUMPDEST PUSH1 0x0 PUSH1 0xFF DUP3 AND SWAP1 POP SWAP2 SWAP1 POP JUMP JUMPDEST PUSH2 0x1BEE DUP3 PUSH2 0x1C45 JUMP JUMPDEST DUP2 ADD DUP2 DUP2 LT PUSH8 0xFFFFFFFFFFFFFFFF DUP3 GT OR ISZERO PUSH2 0x1C0D JUMPI PUSH2 0x1C0C PUSH2 0x1C16 JUMP JUMPDEST JUMPDEST DUP1 PUSH1 0x40 MSTORE POP POP POP JUMP JUMPDEST PUSH32 0x4E487B7100000000000000000000000000000000000000000000000000000000 PUSH1 0x0 MSTORE PUSH1 0x41 PUSH1 0x4 MSTORE PUSH1 0x24 PUSH1 0x0 REVERT JUMPDEST PUSH1 0x0 PUSH1 0x1F NOT PUSH1 0x1F DUP4 ADD AND SWAP1 POP SWAP2 SWAP1 POP JUMP JUMPDEST PUSH32 0x496E76616C6964206465706F7369740000000000000000000000000000000000 PUSH1 0x0 DUP3 ADD MSTORE POP JUMP JUMPDEST PUSH32 0x557365726E616D652069732074616B656E000000000000000000000000000000 PUSH1 0x0 DUP3 ADD MSTORE POP JUMP JUMPDEST PUSH32 0x496E76616C69642063757272656E742062616C616E6365000000000000000000 PUSH1 0x0 DUP3 ADD MSTORE POP JUMP JUMPDEST PUSH32 0x4F6E6C7920636F6E74726163747320616C6C6F77656400000000000000000000 PUSH1 0x0 DUP3 ADD MSTORE POP JUMP JUMPDEST PUSH32 0x4F6E6C7920636F6F7264696E61746F7220616C6C6F7765640000000000000000 PUSH1 0x0 DUP3 ADD MSTORE POP JUMP JUMPDEST PUSH32 0x496E76616C69642077697468647261776E000000000000000000000000000000 PUSH1 0x0 DUP3 ADD MSTORE POP JUMP JUMPDEST PUSH32 0x496E76616C69642070726F6F6600000000000000000000000000000000000000 PUSH1 0x0 DUP3 ADD MSTORE POP JUMP JUMPDEST PUSH2 0x1D7E DUP2 PUSH2 0x1B90 JUMP JUMPDEST DUP2 EQ PUSH2 0x1D89 JUMPI PUSH1 0x0 DUP1 REVERT JUMPDEST POP JUMP JUMPDEST PUSH2 0x1D95 DUP2 PUSH2 0x1BA2 JUMP JUMPDEST DUP2 EQ PUSH2 0x1DA0 JUMPI PUSH1 0x0 DUP1 REVERT JUMPDEST POP JUMP JUMPDEST PUSH2 0x1DAC DUP2 PUSH2 0x1BCE JUMP JUMPDEST DUP2 EQ PUSH2 0x1DB7 JUMPI PUSH1 0x0 DUP1 REVERT JUMPDEST POP JUMP JUMPDEST PUSH2 0x1DC3 DUP2 PUSH2 0x1BD8 JUMP JUMPDEST DUP2 EQ PUSH2 0x1DCE JUMPI PUSH1 0x0 DUP1 REVERT JUMPDEST POP JUMP INVALID LOG2 PUSH5 0x6970667358 0x22 SLT KECCAK256 0xB5 0xEF 0xC ADDMOD EQ 0xD2 JUMPI 0xC6 0x49 SWAP6 0x2E 0xF PUSH30 0x619D81257CA1DD57953CE486F4AF1A8EB3538A64736F6C63430008040033 "
        },
        "methodIdentifiers": {
          "changeBalance(uint256,uint256,uint256)": "9ced35f2",
          "coordinatorPubKey(uint256,uint256)": "9d799831",
          "createUser(uint256[2],uint256[2][2],uint256[2],uint256[3],uint8[32][2])": "acc09e3c",
          "deposit(uint256[2],uint256[2][2],uint256[2],uint256[4])": "12fdec66",
          "setContractAdresses(address)": "87472ac3",
          "usernames(uint256)": "136dd963",
          "users(uint256)": "365b98b2",
          "withdrawn(uint256[2],uint256[2][2],uint256[2],uint256[4])": "59dde0b5"
        }
      }
    }
  }
}