{
  "_format": "hh-sol-artifact-1",
  "contractName": "BrazilianStormSportingbet",
  "sourceName": "contracts/BrazilianStorm.sol",
  "abi": [
    {
      "inputs": [
        {
          "internalType": "address",
          "name": "_createUserVerifier",
          "type": "address"
        },
        {
          "internalType": "address",
          "name": "_depositVerifier",
          "type": "address"
        },
        {
          "internalType": "address",
          "name": "_withdrawnVerifier",
          "type": "address"
        },
        {
          "internalType": "uint8[32][2]",
          "name": "_coordinatorPubKey",
          "type": "uint8[32][2]"
        }
      ],
      "stateMutability": "nonpayable",
      "type": "constructor"
    },
    {
      "anonymous": false,
      "inputs": [
        {
          "indexed": false,
          "internalType": "uint256",
          "name": "identityCommitment",
          "type": "uint256"
        },
        {
          "indexed": false,
          "internalType": "uint8[32][2]",
          "name": "pubKey",
          "type": "uint8[32][2]"
        }
      ],
      "name": "UserCreated",
      "type": "event"
    },
    {
      "inputs": [
        {
          "internalType": "uint256",
          "name": "identityCommitment",
          "type": "uint256"
        },
        {
          "internalType": "uint256",
          "name": "currentBalance",
          "type": "uint256"
        },
        {
          "internalType": "uint256",
          "name": "newBalance",
          "type": "uint256"
        }
      ],
      "name": "changeBalance",
      "outputs": [],
      "stateMutability": "nonpayable",
      "type": "function"
    },
    {
      "inputs": [
        {
          "internalType": "uint256",
          "name": "",
          "type": "uint256"
        },
        {
          "internalType": "uint256",
          "name": "",
          "type": "uint256"
        }
      ],
      "name": "coordinatorPubKey",
      "outputs": [
        {
          "internalType": "uint8",
          "name": "",
          "type": "uint8"
        }
      ],
      "stateMutability": "view",
      "type": "function"
    },
    {
      "inputs": [
        {
          "internalType": "uint256[2]",
          "name": "a",
          "type": "uint256[2]"
        },
        {
          "internalType": "uint256[2][2]",
          "name": "b",
          "type": "uint256[2][2]"
        },
        {
          "internalType": "uint256[2]",
          "name": "c",
          "type": "uint256[2]"
        },
        {
          "internalType": "uint256[3]",
          "name": "input",
          "type": "uint256[3]"
        },
        {
          "internalType": "uint8[32][2]",
          "name": "pubKey",
          "type": "uint8[32][2]"
        }
      ],
      "name": "createUser",
      "outputs": [],
      "stateMutability": "nonpayable",
      "type": "function"
    },
    {
      "inputs": [
        {
          "internalType": "uint256[2]",
          "name": "a",
          "type": "uint256[2]"
        },
        {
          "internalType": "uint256[2][2]",
          "name": "b",
          "type": "uint256[2][2]"
        },
        {
          "internalType": "uint256[2]",
          "name": "c",
          "type": "uint256[2]"
        },
        {
          "internalType": "uint256[4]",
          "name": "input",
          "type": "uint256[4]"
        }
      ],
      "name": "deposit",
      "outputs": [],
      "stateMutability": "payable",
      "type": "function"
    },
    {
      "inputs": [
        {
          "internalType": "address",
          "name": "_betContract",
          "type": "address"
        }
      ],
      "name": "setContractAdresses",
      "outputs": [],
      "stateMutability": "nonpayable",
      "type": "function"
    },
    {
      "inputs": [
        {
          "internalType": "uint256",
          "name": "",
          "type": "uint256"
        }
      ],
      "name": "usernames",
      "outputs": [
        {
          "internalType": "bool",
          "name": "",
          "type": "bool"
        }
      ],
      "stateMutability": "view",
      "type": "function"
    },
    {
      "inputs": [
        {
          "internalType": "uint256",
          "name": "",
          "type": "uint256"
        }
      ],
      "name": "users",
      "outputs": [
        {
          "internalType": "uint256",
          "name": "balance",
          "type": "uint256"
        },
        {
          "internalType": "bool",
          "name": "isActive",
          "type": "bool"
        }
      ],
      "stateMutability": "view",
      "type": "function"
    },
    {
      "inputs": [
        {
          "internalType": "uint256[2]",
          "name": "a",
          "type": "uint256[2]"
        },
        {
          "internalType": "uint256[2][2]",
          "name": "b",
          "type": "uint256[2][2]"
        },
        {
          "internalType": "uint256[2]",
          "name": "c",
          "type": "uint256[2]"
        },
        {
          "internalType": "uint256[4]",
          "name": "input",
          "type": "uint256[4]"
        }
      ],
      "name": "withdrawn",
      "outputs": [],
      "stateMutability": "payable",
      "type": "function"
    }
  ],
  "bytecode": "0x60806040523480156200001157600080fd5b50604051620023e3380380620023e38339818101604052810190620000379190620003f9565b33600260006101000a81548173ffffffffffffffffffffffffffffffffffffffff021916908373ffffffffffffffffffffffffffffffffffffffff1602179055508060039060026200008b92919062000159565b5083600560006101000a81548173ffffffffffffffffffffffffffffffffffffffff021916908373ffffffffffffffffffffffffffffffffffffffff16021790555082600660006101000a81548173ffffffffffffffffffffffffffffffffffffffff021916908373ffffffffffffffffffffffffffffffffffffffff16021790555081600760006101000a81548173ffffffffffffffffffffffffffffffffffffffff021916908373ffffffffffffffffffffffffffffffffffffffff16021790555050505050620005cc565b82600281019282156200019b579160200282015b828111156200019a5782518290602062000189929190620001ae565b50916020019190600101906200016d565b5b509050620001aa91906200024f565b5090565b826020601f016020900481019282156200023c5791602002820160005b838211156200020b57835183826101000a81548160ff021916908360ff1602179055509260200192600101602081600001049283019260010302620001cb565b80156200023a5782816101000a81549060ff02191690556001016020816000010492830192600103026200020b565b505b5090506200024b919062000277565b5090565b5b8082111562000273576000818162000269919062000296565b5060010162000250565b5090565b5b808211156200029257600081600090555060010162000278565b5090565b5060009055565b6000620002b4620002ae846200048f565b62000466565b9050808285610400860282011115620002cc57600080fd5b60005b85811015620003015781620002e58882620003b8565b84526020840193506104008301925050600181019050620002cf565b5050509392505050565b6000620003226200031c84620004b8565b62000466565b905080828560208602820111156200033957600080fd5b60005b858110156200036d5781620003528882620003e2565b8452602084019350602083019250506001810190506200033c565b5050509392505050565b600081519050620003888162000598565b92915050565b600082601f830112620003a057600080fd5b6002620003af8482856200029d565b91505092915050565b600082601f830112620003ca57600080fd5b6020620003d98482856200030b565b91505092915050565b600081519050620003f381620005b2565b92915050565b60008060008061086085870312156200041157600080fd5b6000620004218782880162000377565b9450506020620004348782880162000377565b9350506040620004478782880162000377565b92505060606200045a878288016200038e565b91505092959194509250565b60006200047262000485565b905062000480828262000522565b919050565b6000604051905090565b600067ffffffffffffffff821115620004ad57620004ac62000558565b5b602082029050919050565b600067ffffffffffffffff821115620004d657620004d562000558565b5b602082029050919050565b6000620004ee82620004f5565b9050919050565b600073ffffffffffffffffffffffffffffffffffffffff82169050919050565b600060ff82169050919050565b6200052d8262000587565b810181811067ffffffffffffffff821117156200054f576200054e62000558565b5b80604052505050565b7f4e487b7100000000000000000000000000000000000000000000000000000000600052604160045260246000fd5b6000601f19601f8301169050919050565b620005a381620004e1565b8114620005af57600080fd5b50565b620005bd8162000515565b8114620005c957600080fd5b50565b611e0780620005dc6000396000f3fe60806040526004361061007b5760003560e01c806387472ac31161004e57806387472ac3146101335780639ced35f21461015c5780639d79983114610185578063acc09e3c146101c25761007b565b806312fdec6614610080578063136dd9631461009c578063365b98b2146100d957806359dde0b514610117575b600080fd5b61009a60048036038101906100959190611222565b6101eb565b005b3480156100a857600080fd5b506100c360048036038101906100be91906112b0565b610451565b6040516100d091906117f4565b60405180910390f35b3480156100e557600080fd5b5061010060048036038101906100fb91906112b0565b610471565b60405161010e929190611919565b60405180910390f35b610131600480360381019061012c9190611222565b6104a2565b005b34801561013f57600080fd5b5061015a6004803603810190610155919061117f565b610744565b005b34801561016857600080fd5b50610183600480360381019061017e9190611315565b610818565b005b34801561019157600080fd5b506101ac60048036038101906101a791906112d9565b610914565b6040516101b99190611942565b60405180910390f35b3480156101ce57600080fd5b506101e960048036038101906101e491906111a8565b610950565b005b6000600660009054906101000a900473ffffffffffffffffffffffffffffffffffffffff1673ffffffffffffffffffffffffffffffffffffffff16635fe8c13b868686866040518563ffffffff1660e01b815260040161024e94939291906117ad565b60206040518083038186803b15801561026657600080fd5b505afa15801561027a573d6000803e3d6000fd5b505050506040513d601f19601f8201168201806040525081019061029e9190611287565b9050806102e0576040517f08c379a00000000000000000000000000000000000000000000000000000000081526004016102d7906118cf565b60405180910390fd5b60006001600084600060048110610320577f4e487b7100000000000000000000000000000000000000000000000000000000600052603260045260246000fd5b6020020151815260200190815260200160002090508260016004811061036f577f4e487b7100000000000000000000000000000000000000000000000000000000600052603260045260246000fd5b602002015181600001541480156103c35750826003600481106103bb577f4e487b7100000000000000000000000000000000000000000000000000000000600052603260045260246000fd5b602002015134145b610402576040517f08c379a00000000000000000000000000000000000000000000000000000000081526004016103f99061180f565b60405180910390fd5b8260026004811061043c577f4e487b7100000000000000000000000000000000000000000000000000000000600052603260045260246000fd5b60200201518160000181905550505050505050565b60006020528060005260406000206000915054906101000a900460ff1681565b60016020528060005260406000206000915090508060000154908060030160009054906101000a900460ff16905082565b6000600760009054906101000a900473ffffffffffffffffffffffffffffffffffffffff1673ffffffffffffffffffffffffffffffffffffffff16635fe8c13b868686866040518563ffffffff1660e01b815260040161050594939291906117ad565b60206040518083038186803b15801561051d57600080fd5b505afa158015610531573d6000803e3d6000fd5b505050506040513d601f19601f820116820180604052508101906105559190611287565b905080610597576040517f08c379a000000000000000000000000000000000000000000000000000000000815260040161058e906118cf565b60405180910390fd5b600060016000846000600481106105d7577f4e487b7100000000000000000000000000000000000000000000000000000000600052603260045260246000fd5b60200201518152602001908152602001600020905082600160048110610626577f4e487b7100000000000000000000000000000000000000000000000000000000600052603260045260246000fd5b6020020151816000015414610670576040517f08c379a0000000000000000000000000000000000000000000000000000000008152600401610667906118af565b60405180910390fd5b826002600481106106aa577f4e487b7100000000000000000000000000000000000000000000000000000000600052603260045260246000fd5b602002015181600001819055503373ffffffffffffffffffffffffffffffffffffffff166108fc8460036004811061070b577f4e487b7100000000000000000000000000000000000000000000000000000000600052603260045260246000fd5b60200201519081150290604051600060405180830381858888f1935050505015801561073b573d6000803e3d6000fd5b50505050505050565b600260009054906101000a900473ffffffffffffffffffffffffffffffffffffffff1673ffffffffffffffffffffffffffffffffffffffff163373ffffffffffffffffffffffffffffffffffffffff16146107d4576040517f08c379a00000000000000000000000000000000000000000000000000000000081526004016107cb9061188f565b60405180910390fd5b80600860006101000a81548173ffffffffffffffffffffffffffffffffffffffff021916908373ffffffffffffffffffffffffffffffffffffffff16021790555050565b600860009054906101000a900473ffffffffffffffffffffffffffffffffffffffff1673ffffffffffffffffffffffffffffffffffffffff163373ffffffffffffffffffffffffffffffffffffffff16146108a8576040517f08c379a000000000000000000000000000000000000000000000000000000000815260040161089f9061186f565b60405180910390fd5b600060016000858152602001908152602001600020905082816000015414610905576040517f08c379a00000000000000000000000000000000000000000000000000000000081526004016108fc9061184f565b60405180910390fd5b81816000018190555050505050565b6003826002811061092457600080fd5b01816020811061093357600080fd5b60209182820401919006915091509054906101000a900460ff1681565b6000600560009054906101000a900473ffffffffffffffffffffffffffffffffffffffff1673ffffffffffffffffffffffffffffffffffffffff166311479fea878787876040518563ffffffff1660e01b81526004016109b39493929190611766565b60206040518083038186803b1580156109cb57600080fd5b505afa1580156109df573d6000803e3d6000fd5b505050506040513d601f19601f82011682018060405250810190610a039190611287565b905080610a45576040517f08c379a0000000000000000000000000000000000000000000000000000000008152600401610a3c906118cf565b60405180910390fd5b60008084600160038110610a82577f4e487b7100000000000000000000000000000000000000000000000000000000600052603260045260246000fd5b6020020151815260200190815260200160002060009054906101000a900460ff1615610ae3576040517f08c379a0000000000000000000000000000000000000000000000000000000008152600401610ada9061182f565b60405180910390fd5b600160008085600160038110610b22577f4e487b7100000000000000000000000000000000000000000000000000000000600052603260045260246000fd5b6020020151815260200190815260200160002060006101000a81548160ff021916908315150217905550604051806060016040528084600260038110610b91577f4e487b7100000000000000000000000000000000000000000000000000000000600052603260045260246000fd5b60200201518152602001838152602001600115158152506001600085600060038110610be6577f4e487b7100000000000000000000000000000000000000000000000000000000600052603260045260246000fd5b6020020151815260200190815260200160002060008201518160000155602082015181600101906002610c1a929190610cbd565b5060408201518160030160006101000a81548160ff0219169083151502179055509050507f259ef7fea9f07612663253d2844b5bc7e4046d58b6be03a7c82db8393da288cd83600060038110610c99577f4e487b7100000000000000000000000000000000000000000000000000000000600052603260045260246000fd5b602002015183604051610cad9291906118ef565b60405180910390a1505050505050565b8260028101928215610cfa579160200282015b82811115610cf957825182906020610ce9929190610d0b565b5091602001919060010190610cd0565b5b509050610d079190610da5565b5090565b826020601f01602090048101928215610d945791602002820160005b83821115610d6557835183826101000a81548160ff021916908360ff1602179055509260200192600101602081600001049283019260010302610d27565b8015610d925782816101000a81549060ff0219169055600101602081600001049283019260010302610d65565b505b509050610da19190610dc9565b5090565b5b80821115610dc55760008181610dbc9190610de6565b50600101610da6565b5090565b5b80821115610de2576000816000905550600101610dca565b5090565b5060009055565b6000610e00610dfb84611982565b61195d565b90508082856040860282011115610e1657600080fd5b60005b85811015610e465781610e2c88826110a4565b845260208401935060408301925050600181019050610e19565b5050509392505050565b6000610e63610e5e846119a8565b61195d565b9050808285610400860282011115610e7a57600080fd5b60005b85811015610eab5781610e908882611119565b84526020840193506104008301925050600181019050610e7d565b5050509392505050565b6000610ec8610ec3846119ce565b61195d565b90508082856020860282011115610ede57600080fd5b60005b85811015610f0e5781610ef48882611155565b845260208401935060208301925050600181019050610ee1565b5050509392505050565b6000610f2b610f26846119f4565b61195d565b90508082856020860282011115610f4157600080fd5b60005b85811015610f715781610f578882611155565b845260208401935060208301925050600181019050610f44565b5050509392505050565b6000610f8e610f8984611a1a565b61195d565b90508082856020860282011115610fa457600080fd5b60005b85811015610fd45781610fba8882611155565b845260208401935060208301925050600181019050610fa7565b5050509392505050565b6000610ff1610fec84611a40565b61195d565b9050808285602086028201111561100757600080fd5b60005b85811015611037578161101d888261116a565b84526020840193506020830192505060018101905061100a565b5050509392505050565b60008135905061105081611d75565b92915050565b600082601f83011261106757600080fd5b6002611074848285610ded565b91505092915050565b600082601f83011261108e57600080fd5b600261109b848285610e50565b91505092915050565b600082601f8301126110b557600080fd5b60026110c2848285610eb5565b91505092915050565b600082601f8301126110dc57600080fd5b60036110e9848285610f18565b91505092915050565b600082601f83011261110357600080fd5b6004611110848285610f7b565b91505092915050565b600082601f83011261112a57600080fd5b6020611137848285610fde565b91505092915050565b60008151905061114f81611d8c565b92915050565b60008135905061116481611da3565b92915050565b60008135905061117981611dba565b92915050565b60006020828403121561119157600080fd5b600061119f84828501611041565b91505092915050565b600080600080600061096086880312156111c157600080fd5b60006111cf888289016110a4565b95505060406111e088828901611056565b94505060c06111f1888289016110a4565b935050610100611203888289016110cb565b9250506101606112158882890161107d565b9150509295509295909350565b600080600080610180858703121561123957600080fd5b6000611247878288016110a4565b945050604061125887828801611056565b93505060c0611269878288016110a4565b92505061010061127b878288016110f2565b91505092959194509250565b60006020828403121561129957600080fd5b60006112a784828501611140565b91505092915050565b6000602082840312156112c257600080fd5b60006112d084828501611155565b91505092915050565b600080604083850312156112ec57600080fd5b60006112fa85828601611155565b925050602061130b85828601611155565b9150509250929050565b60008060006060848603121561132a57600080fd5b600061133886828701611155565b935050602061134986828701611155565b925050604061135a86828701611155565b9150509250925092565b60006113708383611473565b60408301905092915050565b600061138883836115cf565b6104008301905092915050565b60006113a1838361172a565b60208301905092915050565b60006113b98383611748565b60208301905092915050565b6113ce81611aa2565b6113d88184611b32565b92506113e382611a66565b8060005b838110156114145781516113fb8782611364565b965061140683611ae4565b9250506001810190506113e7565b505050505050565b61142581611aad565b61142f8184611b3d565b925061143a82611a70565b8060005b8381101561146b578151611452878261137c565b965061145d83611af1565b92505060018101905061143e565b505050505050565b61147c81611ab8565b6114868184611b48565b925061149182611a7a565b8060005b838110156114c25781516114a98782611395565b96506114b483611afe565b925050600181019050611495565b505050505050565b6114d381611ab8565b6114dd8184611b53565b92506114e882611a7a565b8060005b838110156115195781516115008782611395565b965061150b83611afe565b9250506001810190506114ec565b505050505050565b61152a81611ac3565b6115348184611b5e565b925061153f82611a84565b8060005b838110156115705781516115578782611395565b965061156283611b0b565b925050600181019050611543565b505050505050565b61158181611ace565b61158b8184611b69565b925061159682611a8e565b8060005b838110156115c75781516115ae8782611395565b96506115b983611b18565b92505060018101905061159a565b505050505050565b6115d881611ad9565b6115e28184611b74565b92506115ed82611a98565b8060005b8381101561161e57815161160587826113ad565b965061161083611b25565b9250506001810190506115f1565b505050505050565b61162f81611ba2565b82525050565b6000611642600f83611b7f565b915061164d82611c56565b602082019050919050565b6000611665601183611b7f565b915061167082611c7f565b602082019050919050565b6000611688601783611b7f565b915061169382611ca8565b602082019050919050565b60006116ab601683611b7f565b91506116b682611cd1565b602082019050919050565b60006116ce601883611b7f565b91506116d982611cfa565b602082019050919050565b60006116f1601183611b7f565b91506116fc82611d23565b602082019050919050565b6000611714600d83611b7f565b915061171f82611d4c565b602082019050919050565b61173381611bce565b82525050565b61174281611bce565b82525050565b61175181611bd8565b82525050565b61176081611bd8565b82525050565b60006101608201905061177c60008301876114ca565b61178960408301866113c5565b61179660c08301856114ca565b6117a4610100830184611521565b95945050505050565b6000610180820190506117c360008301876114ca565b6117d060408301866113c5565b6117dd60c08301856114ca565b6117eb610100830184611578565b95945050505050565b60006020820190506118096000830184611626565b92915050565b6000602082019050818103600083015261182881611635565b9050919050565b6000602082019050818103600083015261184881611658565b9050919050565b600060208201905081810360008301526118688161167b565b9050919050565b600060208201905081810360008301526118888161169e565b9050919050565b600060208201905081810360008301526118a8816116c1565b9050919050565b600060208201905081810360008301526118c8816116e4565b9050919050565b600060208201905081810360008301526118e881611707565b9050919050565b6000610820820190506119056000830185611739565b611912602083018461141c565b9392505050565b600060408201905061192e6000830185611739565b61193b6020830184611626565b9392505050565b60006020820190506119576000830184611757565b92915050565b6000611967611978565b90506119738282611be5565b919050565b6000604051905090565b600067ffffffffffffffff82111561199d5761199c611c16565b5b602082029050919050565b600067ffffffffffffffff8211156119c3576119c2611c16565b5b602082029050919050565b600067ffffffffffffffff8211156119e9576119e8611c16565b5b602082029050919050565b600067ffffffffffffffff821115611a0f57611a0e611c16565b5b602082029050919050565b600067ffffffffffffffff821115611a3557611a34611c16565b5b602082029050919050565b600067ffffffffffffffff821115611a5b57611a5a611c16565b5b602082029050919050565b6000819050919050565b6000819050919050565b6000819050919050565b6000819050919050565b6000819050919050565b6000819050919050565b600060029050919050565b600060029050919050565b600060029050919050565b600060039050919050565b600060049050919050565b600060209050919050565b6000602082019050919050565b6000602082019050919050565b6000602082019050919050565b6000602082019050919050565b6000602082019050919050565b6000602082019050919050565b600081905092915050565b600081905092915050565b600081905092915050565b600081905092915050565b600081905092915050565b600081905092915050565b600081905092915050565b600082825260208201905092915050565b6000611b9b82611bae565b9050919050565b60008115159050919050565b600073ffffffffffffffffffffffffffffffffffffffff82169050919050565b6000819050919050565b600060ff82169050919050565b611bee82611c45565b810181811067ffffffffffffffff82111715611c0d57611c0c611c16565b5b80604052505050565b7f4e487b7100000000000000000000000000000000000000000000000000000000600052604160045260246000fd5b6000601f19601f8301169050919050565b7f496e76616c6964206465706f7369740000000000000000000000000000000000600082015250565b7f557365726e616d652069732074616b656e000000000000000000000000000000600082015250565b7f496e76616c69642063757272656e742062616c616e6365000000000000000000600082015250565b7f4f6e6c7920636f6e74726163747320616c6c6f77656400000000000000000000600082015250565b7f4f6e6c7920636f6f7264696e61746f7220616c6c6f7765640000000000000000600082015250565b7f496e76616c69642077697468647261776e000000000000000000000000000000600082015250565b7f496e76616c69642070726f6f6600000000000000000000000000000000000000600082015250565b611d7e81611b90565b8114611d8957600080fd5b50565b611d9581611ba2565b8114611da057600080fd5b50565b611dac81611bce565b8114611db757600080fd5b50565b611dc381611bd8565b8114611dce57600080fd5b5056fea2646970667358221220b5ef0c0814d257c649952e0f7d619d81257ca1dd57953ce486f4af1a8eb3538a64736f6c63430008040033",
  "linkReferences": {},
  "deployedLinkReferences": {}
}