{
  "_format": "hh-sol-artifact-1",
  "contractName": "Matches",
  "sourceName": "contracts/Matches.sol",
  "abi": [
    {
      "inputs": [],
      "stateMutability": "nonpayable",
      "type": "constructor"
    },
    {
      "anonymous": false,
      "inputs": [
        {
          "indexed": false,
          "internalType": "uint256",
          "name": "id",
          "type": "uint256"
        },
        {
          "indexed": false,
          "internalType": "string",
          "name": "name",
          "type": "string"
        },
        {
          "indexed": false,
          "internalType": "uint16",
          "name": "season",
          "type": "uint16"
        },
        {
          "indexed": false,
          "internalType": "string",
          "name": "country",
          "type": "string"
        }
      ],
      "name": "ChampionshipInserted",
      "type": "event"
    },
    {
      "anonymous": false,
      "inputs": [
        {
          "indexed": false,
          "internalType": "uint256",
          "name": "id",
          "type": "uint256"
        },
        {
          "indexed": false,
          "internalType": "uint256",
          "name": "champId",
          "type": "uint256"
        },
        {
          "indexed": false,
          "internalType": "string",
          "name": "house",
          "type": "string"
        },
        {
          "indexed": false,
          "internalType": "string",
          "name": "visitor",
          "type": "string"
        }
      ],
      "name": "MatchInserted",
      "type": "event"
    },
    {
      "inputs": [],
      "name": "champIds",
      "outputs": [
        {
          "internalType": "uint256",
          "name": "_value",
          "type": "uint256"
        }
      ],
      "stateMutability": "view",
      "type": "function"
    },
    {
      "inputs": [
        {
          "internalType": "uint256",
          "name": "",
          "type": "uint256"
        }
      ],
      "name": "championships",
      "outputs": [
        {
          "internalType": "string",
          "name": "name",
          "type": "string"
        },
        {
          "internalType": "uint16",
          "name": "season",
          "type": "uint16"
        },
        {
          "internalType": "string",
          "name": "country",
          "type": "string"
        },
        {
          "internalType": "bool",
          "name": "closed",
          "type": "bool"
        },
        {
          "internalType": "uint256",
          "name": "openMatchIndex",
          "type": "uint256"
        }
      ],
      "stateMutability": "view",
      "type": "function"
    },
    {
      "inputs": [
        {
          "components": [
            {
              "internalType": "uint8",
              "name": "house",
              "type": "uint8"
            },
            {
              "internalType": "uint8",
              "name": "visitor",
              "type": "uint8"
            },
            {
              "internalType": "uint256",
              "name": "matchId",
              "type": "uint256"
            },
            {
              "internalType": "uint256",
              "name": "champId",
              "type": "uint256"
            }
          ],
          "internalType": "struct Matches.Fullfill[]",
          "name": "results",
          "type": "tuple[]"
        }
      ],
      "name": "fullfillResults",
      "outputs": [],
      "stateMutability": "nonpayable",
      "type": "function"
    },
    {
      "inputs": [
        {
          "internalType": "uint256",
          "name": "champId",
          "type": "uint256"
        },
        {
          "internalType": "uint256",
          "name": "matchId",
          "type": "uint256"
        }
      ],
      "name": "getMatch",
      "outputs": [
        {
          "components": [
            {
              "internalType": "string",
              "name": "house",
              "type": "string"
            },
            {
              "internalType": "string",
              "name": "visitor",
              "type": "string"
            },
            {
              "internalType": "uint256",
              "name": "start",
              "type": "uint256"
            },
            {
              "internalType": "uint8",
              "name": "houseGoals",
              "type": "uint8"
            },
            {
              "internalType": "uint8",
              "name": "visitorGoals",
              "type": "uint8"
            },
            {
              "internalType": "bool",
              "name": "closed",
              "type": "bool"
            },
            {
              "internalType": "bool",
              "name": "resultsFullfilled",
              "type": "bool"
            }
          ],
          "internalType": "struct Dto.Match",
          "name": "",
          "type": "tuple"
        }
      ],
      "stateMutability": "view",
      "type": "function"
    },
    {
      "inputs": [
        {
          "components": [
            {
              "internalType": "string",
              "name": "name",
              "type": "string"
            },
            {
              "internalType": "uint16",
              "name": "season",
              "type": "uint16"
            },
            {
              "internalType": "string",
              "name": "country",
              "type": "string"
            },
            {
              "internalType": "bool",
              "name": "closed",
              "type": "bool"
            },
            {
              "internalType": "uint256",
              "name": "openMatchIndex",
              "type": "uint256"
            }
          ],
          "internalType": "struct Matches.Championship[]",
          "name": "champs",
          "type": "tuple[]"
        }
      ],
      "name": "insertChampionships",
      "outputs": [],
      "stateMutability": "nonpayable",
      "type": "function"
    },
    {
      "inputs": [
        {
          "internalType": "uint256",
          "name": "champId",
          "type": "uint256"
        },
        {
          "components": [
            {
              "internalType": "string",
              "name": "house",
              "type": "string"
            },
            {
              "internalType": "string",
              "name": "visitor",
              "type": "string"
            },
            {
              "internalType": "uint256",
              "name": "start",
              "type": "uint256"
            },
            {
              "internalType": "uint8",
              "name": "houseGoals",
              "type": "uint8"
            },
            {
              "internalType": "uint8",
              "name": "visitorGoals",
              "type": "uint8"
            },
            {
              "internalType": "bool",
              "name": "closed",
              "type": "bool"
            },
            {
              "internalType": "bool",
              "name": "resultsFullfilled",
              "type": "bool"
            }
          ],
          "internalType": "struct Dto.Match[]",
          "name": "matchesToInsert",
          "type": "tuple[]"
        }
      ],
      "name": "insertMatches",
      "outputs": [],
      "stateMutability": "nonpayable",
      "type": "function"
    },
    {
      "inputs": [
        {
          "internalType": "uint256",
          "name": "",
          "type": "uint256"
        }
      ],
      "name": "matchIds",
      "outputs": [
        {
          "internalType": "uint256",
          "name": "_value",
          "type": "uint256"
        }
      ],
      "stateMutability": "view",
      "type": "function"
    },
    {
      "inputs": [
        {
          "internalType": "uint256",
          "name": "",
          "type": "uint256"
        },
        {
          "internalType": "uint256",
          "name": "",
          "type": "uint256"
        }
      ],
      "name": "matches",
      "outputs": [
        {
          "internalType": "string",
          "name": "house",
          "type": "string"
        },
        {
          "internalType": "string",
          "name": "visitor",
          "type": "string"
        },
        {
          "internalType": "uint256",
          "name": "start",
          "type": "uint256"
        },
        {
          "internalType": "uint8",
          "name": "houseGoals",
          "type": "uint8"
        },
        {
          "internalType": "uint8",
          "name": "visitorGoals",
          "type": "uint8"
        },
        {
          "internalType": "bool",
          "name": "closed",
          "type": "bool"
        },
        {
          "internalType": "bool",
          "name": "resultsFullfilled",
          "type": "bool"
        }
      ],
      "stateMutability": "view",
      "type": "function"
    },
    {
      "inputs": [],
      "name": "openChampionshipIndex",
      "outputs": [
        {
          "internalType": "uint256",
          "name": "",
          "type": "uint256"
        }
      ],
      "stateMutability": "view",
      "type": "function"
    }
  ],
  "bytecode": "0x608060405234801561001057600080fd5b5033600560006101000a81548173ffffffffffffffffffffffffffffffffffffffff021916908373ffffffffffffffffffffffffffffffffffffffff160217905550611e06806100616000396000f3fe608060405234801561001057600080fd5b50600436106100935760003560e01c806339c4a1cd1161006657806339c4a1cd1461013257806373d6b87214610166578063a111496414610182578063c58e8bb11461019e578063d67ed34d146101bc57610093565b806305e14c9914610098578063107cfe51146100b65780632c2702e8146100e657806336ff6a7014610102575b600080fd5b6100a06101f2565b6040516100ad919061199d565b60405180910390f35b6100d060048036038101906100cb919061165d565b6101f8565b6040516100dd919061197b565b60405180910390f35b61010060048036038101906100fb9190611609565b6103db565b005b61011c600480360381019061011791906115e0565b6106d3565b604051610129919061199d565b60405180910390f35b61014c600480360381019061014791906115e0565b6106f1565b60405161015d9594939291906118da565b60405180910390f35b610180600480360381019061017b919061155e565b610852565b005b61019c6004803603810190610197919061159f565b610b5e565b005b6101a6610df3565b6040516101b3919061199d565b60405180910390f35b6101d660048036038101906101d1919061165d565b610dff565b6040516101e9979695949392919061185d565b60405180910390f35b60025481565b610200610fb6565b60006003600085815260200190815260200160002060008481526020019081526020016000206040518060e001604052908160008201805461024190611bd8565b80601f016020809104026020016040519081016040528092919081815260200182805461026d90611bd8565b80156102ba5780601f1061028f576101008083540402835291602001916102ba565b820191906000526020600020905b81548152906001019060200180831161029d57829003601f168201915b505050505081526020016001820180546102d390611bd8565b80601f01602080910402602001604051908101604052809291908181526020018280546102ff90611bd8565b801561034c5780601f106103215761010080835404028352916020019161034c565b820191906000526020600020905b81548152906001019060200180831161032f57829003601f168201915b50505050508152602001600282015481526020016003820160009054906101000a900460ff1660ff1660ff1681526020016003820160019054906101000a900460ff1660ff1660ff1681526020016003820160029054906101000a900460ff161515151581526020016003820160039054906101000a900460ff16151515158152505090508091505092915050565b600560009054906101000a900473ffffffffffffffffffffffffffffffffffffffff1673ffffffffffffffffffffffffffffffffffffffff163373ffffffffffffffffffffffffffffffffffffffff161461046b576040517f08c379a00000000000000000000000000000000000000000000000000000000081526004016104629061195b565b60405180910390fd5b60005b81518110156106ce5760006003600085815260200190815260200160002060006104a960046000888152602001908152602001600020610f92565b815260200190815260200160002090508282815181106104f2577f4e487b7100000000000000000000000000000000000000000000000000000000600052603260045260246000fd5b602002602001015160400151816002018190555082828151811061053f577f4e487b7100000000000000000000000000000000000000000000000000000000600052603260045260246000fd5b602002602001015160000151816000019080519060200190610562929190610ffd565b5082828151811061059c577f4e487b7100000000000000000000000000000000000000000000000000000000600052603260045260246000fd5b6020026020010151602001518160010190805190602001906105bf929190610ffd565b507fad9ede88a2582d61ca52746b2476080c0ad4325142f507e3d627fda3148702686105fc60046000878152602001908152602001600020610f92565b85858581518110610636577f4e487b7100000000000000000000000000000000000000000000000000000000600052603260045260246000fd5b60200260200101516000015186868151811061067b577f4e487b7100000000000000000000000000000000000000000000000000000000600052603260045260246000fd5b6020026020010151602001516040516106979493929190611a0b565b60405180910390a16106ba60046000868152602001908152602001600020610fa0565b5080806106c690611c3b565b91505061046e565b505050565b60046020528060005260406000206000915090508060000154905081565b600060205280600052604060002060009150905080600001805461071490611bd8565b80601f016020809104026020016040519081016040528092919081815260200182805461074090611bd8565b801561078d5780601f106107625761010080835404028352916020019161078d565b820191906000526020600020905b81548152906001019060200180831161077057829003601f168201915b5050505050908060010160009054906101000a900461ffff16908060020180546107b690611bd8565b80601f01602080910402602001604051908101604052809291908181526020018280546107e290611bd8565b801561082f5780601f106108045761010080835404028352916020019161082f565b820191906000526020600020905b81548152906001019060200180831161081257829003601f168201915b5050505050908060030160009054906101000a900460ff16908060040154905085565b600560009054906101000a900473ffffffffffffffffffffffffffffffffffffffff1673ffffffffffffffffffffffffffffffffffffffff163373ffffffffffffffffffffffffffffffffffffffff16146108e2576040517f08c379a00000000000000000000000000000000000000000000000000000000081526004016108d99061195b565b60405180910390fd5b60005b8151811015610b5a5760008060006108fd6001610f92565b81526020019081526020016000209050828281518110610946577f4e487b7100000000000000000000000000000000000000000000000000000000600052603260045260246000fd5b602002602001015160000151816000019080519060200190610969929190610ffd565b508282815181106109a3577f4e487b7100000000000000000000000000000000000000000000000000000000600052603260045260246000fd5b6020026020010151602001518160010160006101000a81548161ffff021916908361ffff160217905550828281518110610a06577f4e487b7100000000000000000000000000000000000000000000000000000000600052603260045260246000fd5b602002602001015160400151816002019080519060200190610a29929190610ffd565b507f10764dd95868cd163cc1bdbd6f0981dba5825fcd9063cb102cd379a64533cfaf610a556001610f92565b848481518110610a8e577f4e487b7100000000000000000000000000000000000000000000000000000000600052603260045260246000fd5b602002602001015160000151858581518110610ad3577f4e487b7100000000000000000000000000000000000000000000000000000000600052603260045260246000fd5b602002602001015160200151868681518110610b18577f4e487b7100000000000000000000000000000000000000000000000000000000600052603260045260246000fd5b602002602001015160400151604051610b3494939291906119b8565b60405180910390a1610b466001610fa0565b508080610b5290611c3b565b9150506108e5565b5050565b600560009054906101000a900473ffffffffffffffffffffffffffffffffffffffff1673ffffffffffffffffffffffffffffffffffffffff163373ffffffffffffffffffffffffffffffffffffffff1614610bee576040517f08c379a0000000000000000000000000000000000000000000000000000000008152600401610be59061195b565b60405180910390fd5b60005b8151811015610def57600060036000848481518110610c39577f4e487b7100000000000000000000000000000000000000000000000000000000600052603260045260246000fd5b60200260200101516060015181526020019081526020016000206000848481518110610c8e577f4e487b7100000000000000000000000000000000000000000000000000000000600052603260045260246000fd5b602002602001015160400151815260200190815260200160002090508060030160039054906101000a900460ff1615610cfc576040517f08c379a0000000000000000000000000000000000000000000000000000000008152600401610cf39061193b565b60405180910390fd5b828281518110610d35577f4e487b7100000000000000000000000000000000000000000000000000000000600052603260045260246000fd5b6020026020010151600001518160030160006101000a81548160ff021916908360ff160217905550828281518110610d96577f4e487b7100000000000000000000000000000000000000000000000000000000600052603260045260246000fd5b6020026020010151602001518160030160016101000a81548160ff021916908360ff16021790555060018160030160036101000a81548160ff021916908315150217905550508080610de790611c3b565b915050610bf1565b5050565b60018060000154905081565b600360205281600052604060002060205280600052604060002060009150915050806000018054610e2f90611bd8565b80601f0160208091040260200160405190810160405280929190818152602001828054610e5b90611bd8565b8015610ea85780601f10610e7d57610100808354040283529160200191610ea8565b820191906000526020600020905b815481529060010190602001808311610e8b57829003601f168201915b505050505090806001018054610ebd90611bd8565b80601f0160208091040260200160405190810160405280929190818152602001828054610ee990611bd8565b8015610f365780601f10610f0b57610100808354040283529160200191610f36565b820191906000526020600020905b815481529060010190602001808311610f1957829003601f168201915b5050505050908060020154908060030160009054906101000a900460ff16908060030160019054906101000a900460ff16908060030160029054906101000a900460ff16908060030160039054906101000a900460ff16905087565b600081600001549050919050565b6001816000016000828254019250508190555050565b6040518060e00160405280606081526020016060815260200160008152602001600060ff168152602001600060ff1681526020016000151581526020016000151581525090565b82805461100990611bd8565b90600052602060002090601f01602090048101928261102b5760008555611072565b82601f1061104457805160ff1916838001178555611072565b82800160010185558215611072579182015b82811115611071578251825591602001919060010190611056565b5b50905061107f9190611083565b5090565b5b8082111561109c576000816000905550600101611084565b5090565b60006110b36110ae84611a83565b611a5e565b905080838252602082019050828560208602820111156110d257600080fd5b60005b8581101561111c57813567ffffffffffffffff8111156110f457600080fd5b8086016111018982611313565b855260208501945060208401935050506001810190506110d5565b5050509392505050565b600061113961113484611aaf565b611a5e565b9050808382526020820190508285608086028201111561115857600080fd5b60005b85811015611188578161116e88826113cb565b84526020840193506080830192505060018101905061115b565b5050509392505050565b60006111a56111a084611adb565b611a5e565b905080838252602082019050828560208602820111156111c457600080fd5b60005b8581101561120e57813567ffffffffffffffff8111156111e657600080fd5b8086016111f3898261143f565b855260208501945060208401935050506001810190506111c7565b5050509392505050565b600061122b61122684611b07565b611a5e565b90508281526020810184848401111561124357600080fd5b61124e848285611b96565b509392505050565b600082601f83011261126757600080fd5b81356112778482602086016110a0565b91505092915050565b600082601f83011261129157600080fd5b81356112a1848260208601611126565b91505092915050565b600082601f8301126112bb57600080fd5b81356112cb848260208601611192565b91505092915050565b6000813590506112e381611d74565b92915050565b600082601f8301126112fa57600080fd5b813561130a848260208601611218565b91505092915050565b600060a0828403121561132557600080fd5b61132f60a0611a5e565b9050600082013567ffffffffffffffff81111561134b57600080fd5b611357848285016112e9565b600083015250602061136b8482850161151f565b602083015250604082013567ffffffffffffffff81111561138b57600080fd5b611397848285016112e9565b60408301525060606113ab848285016112d4565b60608301525060806113bf84828501611534565b60808301525092915050565b6000608082840312156113dd57600080fd5b6113e76080611a5e565b905060006113f784828501611549565b600083015250602061140b84828501611549565b602083015250604061141f84828501611534565b604083015250606061143384828501611534565b60608301525092915050565b600060e0828403121561145157600080fd5b61145b60e0611a5e565b9050600082013567ffffffffffffffff81111561147757600080fd5b611483848285016112e9565b600083015250602082013567ffffffffffffffff8111156114a357600080fd5b6114af848285016112e9565b60208301525060406114c384828501611534565b60408301525060606114d784828501611549565b60608301525060806114eb84828501611549565b60808301525060a06114ff848285016112d4565b60a08301525060c0611513848285016112d4565b60c08301525092915050565b60008135905061152e81611d8b565b92915050565b60008135905061154381611da2565b92915050565b60008135905061155881611db9565b92915050565b60006020828403121561157057600080fd5b600082013567ffffffffffffffff81111561158a57600080fd5b61159684828501611256565b91505092915050565b6000602082840312156115b157600080fd5b600082013567ffffffffffffffff8111156115cb57600080fd5b6115d784828501611280565b91505092915050565b6000602082840312156115f257600080fd5b600061160084828501611534565b91505092915050565b6000806040838503121561161c57600080fd5b600061162a85828601611534565b925050602083013567ffffffffffffffff81111561164757600080fd5b611653858286016112aa565b9150509250929050565b6000806040838503121561167057600080fd5b600061167e85828601611534565b925050602061168f85828601611534565b9150509250929050565b6116a281611b65565b82525050565b6116b181611b65565b82525050565b60006116c282611b38565b6116cc8185611b43565b93506116dc818560208601611ba5565b6116e581611d11565b840191505092915050565b60006116fb82611b38565b6117058185611b54565b9350611715818560208601611ba5565b61171e81611d11565b840191505092915050565b6000611736601283611b54565b915061174182611d22565b602082019050919050565b6000611759601883611b54565b915061176482611d4b565b602082019050919050565b600060e083016000830151848203600086015261178c82826116b7565b915050602083015184820360208601526117a682826116b7565b91505060408301516117bb6040860182611821565b5060608301516117ce606086018261183f565b5060808301516117e1608086018261183f565b5060a08301516117f460a0860182611699565b5060c083015161180760c0860182611699565b508091505092915050565b61181b81611b71565b82525050565b61182a81611b7f565b82525050565b61183981611b7f565b82525050565b61184881611b89565b82525050565b61185781611b89565b82525050565b600060e0820190508181036000830152611877818a6116f0565b9050818103602083015261188b81896116f0565b905061189a6040830188611830565b6118a7606083018761184e565b6118b4608083018661184e565b6118c160a08301856116a8565b6118ce60c08301846116a8565b98975050505050505050565b600060a08201905081810360008301526118f481886116f0565b90506119036020830187611812565b818103604083015261191581866116f0565b905061192460608301856116a8565b6119316080830184611830565b9695505050505050565b6000602082019050818103600083015261195481611729565b9050919050565b600060208201905081810360008301526119748161174c565b9050919050565b60006020820190508181036000830152611995818461176f565b905092915050565b60006020820190506119b26000830184611830565b92915050565b60006080820190506119cd6000830187611830565b81810360208301526119df81866116f0565b90506119ee6040830185611812565b8181036060830152611a0081846116f0565b905095945050505050565b6000608082019050611a206000830187611830565b611a2d6020830186611830565b8181036040830152611a3f81856116f0565b90508181036060830152611a5381846116f0565b905095945050505050565b6000611a68611a79565b9050611a748282611c0a565b919050565b6000604051905090565b600067ffffffffffffffff821115611a9e57611a9d611ce2565b5b602082029050602081019050919050565b600067ffffffffffffffff821115611aca57611ac9611ce2565b5b602082029050602081019050919050565b600067ffffffffffffffff821115611af657611af5611ce2565b5b602082029050602081019050919050565b600067ffffffffffffffff821115611b2257611b21611ce2565b5b611b2b82611d11565b9050602081019050919050565b600081519050919050565b600082825260208201905092915050565b600082825260208201905092915050565b60008115159050919050565b600061ffff82169050919050565b6000819050919050565b600060ff82169050919050565b82818337600083830152505050565b60005b83811015611bc3578082015181840152602081019050611ba8565b83811115611bd2576000848401525b50505050565b60006002820490506001821680611bf057607f821691505b60208210811415611c0457611c03611cb3565b5b50919050565b611c1382611d11565b810181811067ffffffffffffffff82111715611c3257611c31611ce2565b5b80604052505050565b6000611c4682611b7f565b91507fffffffffffffffffffffffffffffffffffffffffffffffffffffffffffffffff821415611c7957611c78611c84565b5b600182019050919050565b7f4e487b7100000000000000000000000000000000000000000000000000000000600052601160045260246000fd5b7f4e487b7100000000000000000000000000000000000000000000000000000000600052602260045260246000fd5b7f4e487b7100000000000000000000000000000000000000000000000000000000600052604160045260246000fd5b6000601f19601f8301169050919050565b7f616c72656164792066756c6c66696c6c65640000000000000000000000000000600082015250565b7f4f6e6c7920636f6f7264696e61746f7220616c6c6f7765640000000000000000600082015250565b611d7d81611b65565b8114611d8857600080fd5b50565b611d9481611b71565b8114611d9f57600080fd5b50565b611dab81611b7f565b8114611db657600080fd5b50565b611dc281611b89565b8114611dcd57600080fd5b5056fea2646970667358221220349533fd2e42cdd44adf056a379e0ba8f78833147224440ad9f09a2dcafd93b364736f6c63430008040033",
  "linkReferences": {},
  "deployedLinkReferences": {}
}