{
  "_format": "hh-sol-artifact-1",
  "contractName": "Bets",
  "sourceName": "contracts/Bets.sol",
  "abi": [
    {
      "inputs": [
        {
          "internalType": "address",
          "name": "_betVerifier",
          "type": "address"
        },
        {
          "internalType": "address",
          "name": "_claimBetVerifier",
          "type": "address"
        },
        {
          "internalType": "address",
          "name": "_mainContract",
          "type": "address"
        },
        {
          "internalType": "address",
          "name": "_matchContract",
          "type": "address"
        }
      ],
      "stateMutability": "nonpayable",
      "type": "constructor"
    },
    {
      "anonymous": false,
      "inputs": [
        {
          "indexed": false,
          "internalType": "uint256",
          "name": "id",
          "type": "uint256"
        },
        {
          "indexed": false,
          "internalType": "uint256",
          "name": "champId",
          "type": "uint256"
        },
        {
          "indexed": false,
          "internalType": "uint256",
          "name": "matchId",
          "type": "uint256"
        },
        {
          "indexed": false,
          "internalType": "uint256",
          "name": "better",
          "type": "uint256"
        },
        {
          "indexed": false,
          "internalType": "string",
          "name": "betType",
          "type": "string"
        }
      ],
      "name": "BetInserted",
      "type": "event"
    },
    {
      "inputs": [
        {
          "internalType": "uint256[2]",
          "name": "a",
          "type": "uint256[2]"
        },
        {
          "internalType": "uint256[2][2]",
          "name": "b",
          "type": "uint256[2][2]"
        },
        {
          "internalType": "uint256[2]",
          "name": "c",
          "type": "uint256[2]"
        },
        {
          "internalType": "uint256[4]",
          "name": "input",
          "type": "uint256[4]"
        },
        {
          "internalType": "uint256",
          "name": "champId",
          "type": "uint256"
        },
        {
          "internalType": "uint256",
          "name": "matchId",
          "type": "uint256"
        },
        {
          "internalType": "bool",
          "name": "house",
          "type": "bool"
        },
        {
          "internalType": "uint8",
          "name": "goals",
          "type": "uint8"
        }
      ],
      "name": "betGoals",
      "outputs": [],
      "stateMutability": "nonpayable",
      "type": "function"
    },
    {
      "inputs": [
        {
          "internalType": "uint256[2]",
          "name": "a",
          "type": "uint256[2]"
        },
        {
          "internalType": "uint256[2][2]",
          "name": "b",
          "type": "uint256[2][2]"
        },
        {
          "internalType": "uint256[2]",
          "name": "c",
          "type": "uint256[2]"
        },
        {
          "internalType": "uint256[4]",
          "name": "input",
          "type": "uint256[4]"
        },
        {
          "internalType": "uint256",
          "name": "champId",
          "type": "uint256"
        },
        {
          "internalType": "uint256",
          "name": "matchId",
          "type": "uint256"
        },
        {
          "internalType": "uint8",
          "name": "house",
          "type": "uint8"
        },
        {
          "internalType": "uint8",
          "name": "visitor",
          "type": "uint8"
        }
      ],
      "name": "betScore",
      "outputs": [],
      "stateMutability": "nonpayable",
      "type": "function"
    },
    {
      "inputs": [
        {
          "internalType": "uint256[2]",
          "name": "a",
          "type": "uint256[2]"
        },
        {
          "internalType": "uint256[2][2]",
          "name": "b",
          "type": "uint256[2][2]"
        },
        {
          "internalType": "uint256[2]",
          "name": "c",
          "type": "uint256[2]"
        },
        {
          "internalType": "uint256[4]",
          "name": "input",
          "type": "uint256[4]"
        },
        {
          "internalType": "uint256",
          "name": "champId",
          "type": "uint256"
        },
        {
          "internalType": "uint256",
          "name": "matchId",
          "type": "uint256"
        },
        {
          "internalType": "bool",
          "name": "house",
          "type": "bool"
        }
      ],
      "name": "betWinner",
      "outputs": [],
      "stateMutability": "nonpayable",
      "type": "function"
    },
    {
      "inputs": [
        {
          "internalType": "uint256[2]",
          "name": "a",
          "type": "uint256[2]"
        },
        {
          "internalType": "uint256[2][2]",
          "name": "b",
          "type": "uint256[2][2]"
        },
        {
          "internalType": "uint256[2]",
          "name": "c",
          "type": "uint256[2]"
        },
        {
          "internalType": "uint256[5]",
          "name": "input",
          "type": "uint256[5]"
        },
        {
          "internalType": "uint256",
          "name": "champId",
          "type": "uint256"
        },
        {
          "internalType": "uint256",
          "name": "matchId",
          "type": "uint256"
        },
        {
          "internalType": "uint256",
          "name": "betId",
          "type": "uint256"
        }
      ],
      "name": "claimGoalsBet",
      "outputs": [],
      "stateMutability": "nonpayable",
      "type": "function"
    },
    {
      "inputs": [
        {
          "internalType": "uint256[2]",
          "name": "a",
          "type": "uint256[2]"
        },
        {
          "internalType": "uint256[2][2]",
          "name": "b",
          "type": "uint256[2][2]"
        },
        {
          "internalType": "uint256[2]",
          "name": "c",
          "type": "uint256[2]"
        },
        {
          "internalType": "uint256[5]",
          "name": "input",
          "type": "uint256[5]"
        },
        {
          "internalType": "uint256",
          "name": "champId",
          "type": "uint256"
        },
        {
          "internalType": "uint256",
          "name": "matchId",
          "type": "uint256"
        },
        {
          "internalType": "uint256",
          "name": "betId",
          "type": "uint256"
        }
      ],
      "name": "claimScoreBet",
      "outputs": [],
      "stateMutability": "nonpayable",
      "type": "function"
    },
    {
      "inputs": [
        {
          "internalType": "uint256[2]",
          "name": "a",
          "type": "uint256[2]"
        },
        {
          "internalType": "uint256[2][2]",
          "name": "b",
          "type": "uint256[2][2]"
        },
        {
          "internalType": "uint256[2]",
          "name": "c",
          "type": "uint256[2]"
        },
        {
          "internalType": "uint256[5]",
          "name": "input",
          "type": "uint256[5]"
        },
        {
          "internalType": "uint256",
          "name": "champId",
          "type": "uint256"
        },
        {
          "internalType": "uint256",
          "name": "matchId",
          "type": "uint256"
        },
        {
          "internalType": "uint256",
          "name": "betId",
          "type": "uint256"
        }
      ],
      "name": "claimWinnerBet",
      "outputs": [],
      "stateMutability": "nonpayable",
      "type": "function"
    },
    {
      "inputs": [
        {
          "internalType": "uint256",
          "name": "champId",
          "type": "uint256"
        },
        {
          "internalType": "uint256",
          "name": "matchId",
          "type": "uint256"
        }
      ],
      "name": "getMatchBets",
      "outputs": [
        {
          "components": [
            {
              "components": [
                {
                  "internalType": "bool",
                  "name": "house",
                  "type": "bool"
                },
                {
                  "internalType": "uint256",
                  "name": "better",
                  "type": "uint256"
                },
                {
                  "internalType": "uint256",
                  "name": "value",
                  "type": "uint256"
                },
                {
                  "internalType": "bool",
                  "name": "claimed",
                  "type": "bool"
                }
              ],
              "internalType": "struct Bets.WinnerBet[]",
              "name": "winner",
              "type": "tuple[]"
            },
            {
              "components": [
                {
                  "internalType": "uint8",
                  "name": "house",
                  "type": "uint8"
                },
                {
                  "internalType": "uint8",
                  "name": "visitor",
                  "type": "uint8"
                },
                {
                  "internalType": "uint256",
                  "name": "better",
                  "type": "uint256"
                },
                {
                  "internalType": "uint256",
                  "name": "value",
                  "type": "uint256"
                },
                {
                  "internalType": "bool",
                  "name": "claimed",
                  "type": "bool"
                }
              ],
              "internalType": "struct Bets.ScoreBet[]",
              "name": "score",
              "type": "tuple[]"
            },
            {
              "components": [
                {
                  "internalType": "bool",
                  "name": "house",
                  "type": "bool"
                },
                {
                  "internalType": "uint8",
                  "name": "goals",
                  "type": "uint8"
                },
                {
                  "internalType": "uint256",
                  "name": "better",
                  "type": "uint256"
                },
                {
                  "internalType": "uint256",
                  "name": "value",
                  "type": "uint256"
                },
                {
                  "internalType": "bool",
                  "name": "claimed",
                  "type": "bool"
                }
              ],
              "internalType": "struct Bets.GoalsBet[]",
              "name": "goals",
              "type": "tuple[]"
            }
          ],
          "internalType": "struct Bets.MatchBetsValues",
          "name": "",
          "type": "tuple"
        }
      ],
      "stateMutability": "view",
      "type": "function"
    }
  ],
  "bytecode": "0x60806040523480156200001157600080fd5b5060405162003bae38038062003bae83398181016040528101906200003791906200015c565b83600260006101000a81548173ffffffffffffffffffffffffffffffffffffffff021916908373ffffffffffffffffffffffffffffffffffffffff16021790555082600160006101000a81548173ffffffffffffffffffffffffffffffffffffffff021916908373ffffffffffffffffffffffffffffffffffffffff16021790555081600360006101000a81548173ffffffffffffffffffffffffffffffffffffffff021916908373ffffffffffffffffffffffffffffffffffffffff16021790555080600460006101000a81548173ffffffffffffffffffffffffffffffffffffffff021916908373ffffffffffffffffffffffffffffffffffffffff1602179055505050505062000216565b6000815190506200015681620001fc565b92915050565b600080600080608085870312156200017357600080fd5b6000620001838782880162000145565b9450506020620001968782880162000145565b9350506040620001a98782880162000145565b9250506060620001bc8782880162000145565b91505092959194509250565b6000620001d582620001dc565b9050919050565b600073ffffffffffffffffffffffffffffffffffffffff82169050919050565b6200020781620001c8565b81146200021357600080fd5b50565b61398880620002266000396000f3fe608060405234801561001057600080fd5b506004361061007d5760003560e01c80632585ed311161005b5780632585ed31146100d6578063aa86b69d14610106578063c46b070e14610122578063e665fd761461013e5761007d565b80631222060f1461008257806313caa6591461009e5780631f698520146100ba575b600080fd5b61009c600480360381019061009791906128d2565b61015a565b005b6100b860048036038101906100b391906128d2565b610724565b005b6100d460048036038101906100cf9190612764565b610cd4565b005b6100f060048036038101906100eb91906129df565b610eec565b6040516100fd91906131eb565b60405180910390f35b610120600480360381019061011b919061281b565b6114b7565b005b61013c600480360381019061013791906126c1565b6116d1565b005b610158600480360381019061015391906128d2565b6118be565b005b6000600160009054906101000a900473ffffffffffffffffffffffffffffffffffffffff1673ffffffffffffffffffffffffffffffffffffffff166334baeab9898989896040518563ffffffff1660e01b81526004016101bd94939291906130c4565b60206040518083038186803b1580156101d557600080fd5b505afa1580156101e9573d6000803e3d6000fd5b505050506040513d601f19601f8201168201806040525081019061020d9190612975565b90508061024f576040517f08c379a0000000000000000000000000000000000000000000000000000000008152600401610246906131ab565b60405180910390fd5b6000600460009054906101000a900473ffffffffffffffffffffffffffffffffffffffff1673ffffffffffffffffffffffffffffffffffffffff1663107cfe5186866040518363ffffffff1660e01b81526004016102ae92919061320d565b60006040518083038186803b1580156102c657600080fd5b505afa1580156102da573d6000803e3d6000fd5b505050506040513d6000823e3d601f19601f82011682018060405250810190610303919061299e565b90508060a00151610349576040517f08c379a00000000000000000000000000000000000000000000000000000000081526004016103409061318b565b60405180910390fd5b600080600087815260200190815260200160002060008681526020019081526020016000206000019050600081600001600086815260200190815260200160002090508060030160009054906101000a900460ff16156103de576040517f08c379a00000000000000000000000000000000000000000000000000000000081526004016103d59061316b565b60405180910390fd5b87600060058110610418577f4e487b7100000000000000000000000000000000000000000000000000000000600052603260045260246000fd5b60200201518160010154148015610470575087600360058110610464577f4e487b7100000000000000000000000000000000000000000000000000000000600052603260045260246000fd5b60200201518160020154145b80156104d35750876004600581106104b1577f4e487b7100000000000000000000000000000000000000000000000000000000600052603260045260246000fd5b602002015161ffff168260020160009054906101000a900461ffff1661ffff16145b610512576040517f08c379a00000000000000000000000000000000000000000000000000000000081526004016105099061314b565b60405180910390fd5b8060000160009054906101000a900460ff16801561053d5750826080015160ff16836060015160ff16115b8061057057508060000160009054906101000a900460ff1615801561056f5750826080015160ff16836060015160ff16105b5b6105af576040517f08c379a00000000000000000000000000000000000000000000000000000000081526004016105a69061310b565b60405180910390fd5b60018160030160006101000a81548160ff021916908315150217905550600360009054906101000a900473ffffffffffffffffffffffffffffffffffffffff1673ffffffffffffffffffffffffffffffffffffffff16639ced35f289600060058110610644577f4e487b7100000000000000000000000000000000000000000000000000000000600052603260045260246000fd5b60200201518a600160058110610683577f4e487b7100000000000000000000000000000000000000000000000000000000600052603260045260246000fd5b60200201518b6002600581106106c2577f4e487b7100000000000000000000000000000000000000000000000000000000600052603260045260246000fd5b60200201516040518463ffffffff1660e01b81526004016106e593929190613236565b600060405180830381600087803b1580156106ff57600080fd5b505af1158015610713573d6000803e3d6000fd5b505050505050505050505050505050565b6000600160009054906101000a900473ffffffffffffffffffffffffffffffffffffffff1673ffffffffffffffffffffffffffffffffffffffff166334baeab9898989896040518563ffffffff1660e01b815260040161078794939291906130c4565b60206040518083038186803b15801561079f57600080fd5b505afa1580156107b3573d6000803e3d6000fd5b505050506040513d601f19601f820116820180604052508101906107d79190612975565b905080610819576040517f08c379a0000000000000000000000000000000000000000000000000000000008152600401610810906131ab565b60405180910390fd5b6000600460009054906101000a900473ffffffffffffffffffffffffffffffffffffffff1673ffffffffffffffffffffffffffffffffffffffff1663107cfe5186866040518363ffffffff1660e01b815260040161087892919061320d565b60006040518083038186803b15801561089057600080fd5b505afa1580156108a4573d6000803e3d6000fd5b505050506040513d6000823e3d601f19601f820116820180604052508101906108cd919061299e565b90508060a00151610913576040517f08c379a000000000000000000000000000000000000000000000000000000000815260040161090a9061318b565b60405180910390fd5b600080600087815260200190815260200160002060008681526020019081526020016000206003019050600081600001600086815260200190815260200160002090508060030160009054906101000a900460ff16156109a8576040517f08c379a000000000000000000000000000000000000000000000000000000000815260040161099f9061316b565b60405180910390fd5b876000600581106109e2577f4e487b7100000000000000000000000000000000000000000000000000000000600052603260045260246000fd5b60200201518160010154148015610a3a575087600360058110610a2e577f4e487b7100000000000000000000000000000000000000000000000000000000600052603260045260246000fd5b60200201518160020154145b8015610a9d575087600460058110610a7b577f4e487b7100000000000000000000000000000000000000000000000000000000600052603260045260246000fd5b602002015161ffff168260020160009054906101000a900461ffff1661ffff16145b610adc576040517f08c379a0000000000000000000000000000000000000000000000000000000008152600401610ad39061314b565b60405180910390fd5b826060015160ff168160000160009054906101000a900460ff1660ff16148015610b205750826080015160ff168160000160019054906101000a900460ff1660ff16145b610b5f576040517f08c379a0000000000000000000000000000000000000000000000000000000008152600401610b569061310b565b60405180910390fd5b60018160030160006101000a81548160ff021916908315150217905550600360009054906101000a900473ffffffffffffffffffffffffffffffffffffffff1673ffffffffffffffffffffffffffffffffffffffff16639ced35f289600060058110610bf4577f4e487b7100000000000000000000000000000000000000000000000000000000600052603260045260246000fd5b60200201518a600160058110610c33577f4e487b7100000000000000000000000000000000000000000000000000000000600052603260045260246000fd5b60200201518b600260058110610c72577f4e487b7100000000000000000000000000000000000000000000000000000000600052603260045260246000fd5b60200201516040518463ffffffff1660e01b8152600401610c9593929190613236565b600060405180830381600087803b158015610caf57600080fd5b505af1158015610cc3573d6000803e3d6000fd5b505050505050505050505050505050565b610ce2888888888888611ea1565b6000806000868152602001908152602001600020600085815260200190815260200160002060060190506040518060a0016040528084151581526020018360ff16815260200187600060048110610d62577f4e487b7100000000000000000000000000000000000000000000000000000000600052603260045260246000fd5b6020020151815260200187600360048110610da6577f4e487b7100000000000000000000000000000000000000000000000000000000600052603260045260246000fd5b6020020151815260200160001515815250816000016000610dc9846001016121f5565b815260200190815260200160002060008201518160000160006101000a81548160ff02191690831515021790555060208201518160000160016101000a81548160ff021916908360ff160217905550604082015181600101556060820151816002015560808201518160030160006101000a81548160ff0219169083151502179055509050507f5a09b93169b70f52b5fef188ef3328958c0c736fdbad0ef5ba0a5ecf0a397666610e7c826001016121f5565b868689600060048110610eb8577f4e487b7100000000000000000000000000000000000000000000000000000000600052603260045260246000fd5b6020020151604051610ecd94939291906132c5565b60405180910390a1610ee181600101612203565b505050505050505050565b610ef4612219565b6000600460009054906101000a900473ffffffffffffffffffffffffffffffffffffffff1673ffffffffffffffffffffffffffffffffffffffff1663107cfe5185856040518363ffffffff1660e01b8152600401610f5392919061320d565b60006040518083038186803b158015610f6b57600080fd5b505afa158015610f7f573d6000803e3d6000fd5b505050506040513d6000823e3d601f19601f82011682018060405250810190610fa8919061299e565b90508060c00151610fee576040517f08c379a0000000000000000000000000000000000000000000000000000000008152600401610fe5906131cb565b60405180910390fd5b6000806000868152602001908152602001600020600085815260200190815260200160002090506000611026826000016001016121f5565b67ffffffffffffffff811115611065577f4e487b7100000000000000000000000000000000000000000000000000000000600052604160045260246000fd5b60405190808252806020026020018201604052801561109e57816020015b61108b61223a565b8152602001906001900390816110835790505b50905060006110b2836006016001016121f5565b67ffffffffffffffff8111156110f1577f4e487b7100000000000000000000000000000000000000000000000000000000600052604160045260246000fd5b60405190808252806020026020018201604052801561112a57816020015b611117612266565b81526020019060019003908161110f5790505b509050600061113e846003016001016121f5565b67ffffffffffffffff81111561117d577f4e487b7100000000000000000000000000000000000000000000000000000000600052604160045260246000fd5b6040519080825280602002602001820160405280156111b657816020015b6111a361229c565b81526020019060019003908161119b5790505b50905060005b6111cb856000016001016121f5565b811015611296578460000160000160008281526020019081526020016000206040518060800160405290816000820160009054906101000a900460ff1615151515815260200160018201548152602001600282015481526020016003820160009054906101000a900460ff161515151581525050848281518110611278577f4e487b7100000000000000000000000000000000000000000000000000000000600052603260045260246000fd5b6020026020010181905250808061128e906136bb565b9150506111bc565b5060005b6112a9856006016001016121f5565b811015611391578460060160000160008281526020019081526020016000206040518060a00160405290816000820160009054906101000a900460ff161515151581526020016000820160019054906101000a900460ff1660ff1660ff16815260200160018201548152602001600282015481526020016003820160009054906101000a900460ff161515151581525050838281518110611373577f4e487b7100000000000000000000000000000000000000000000000000000000600052603260045260246000fd5b60200260200101819052508080611389906136bb565b91505061129a565b5060005b6113a4856003016001016121f5565b81101561148e578460030160000160008281526020019081526020016000206040518060a00160405290816000820160009054906101000a900460ff1660ff1660ff1681526020016000820160019054906101000a900460ff1660ff1660ff16815260200160018201548152602001600282015481526020016003820160009054906101000a900460ff161515151581525050828281518110611470577f4e487b7100000000000000000000000000000000000000000000000000000000600052603260045260246000fd5b60200260200101819052508080611486906136bb565b915050611395565b506040518060600160405280848152602001828152602001838152509550505050505092915050565b6114c5888888888888611ea1565b6000806000868152602001908152602001600020600085815260200190815260200160002060030190506040518060a001604052808460ff1681526020018360ff16815260200187600060048110611546577f4e487b7100000000000000000000000000000000000000000000000000000000600052603260045260246000fd5b602002015181526020018760036004811061158a577f4e487b7100000000000000000000000000000000000000000000000000000000600052603260045260246000fd5b60200201518152602001600015158152508160000160006115ad846001016121f5565b815260200190815260200160002060008201518160000160006101000a81548160ff021916908360ff16021790555060208201518160000160016101000a81548160ff021916908360ff160217905550604082015181600101556060820151816002015560808201518160030160006101000a81548160ff0219169083151502179055509050507f5a09b93169b70f52b5fef188ef3328958c0c736fdbad0ef5ba0a5ecf0a397666611661826001016121f5565b86868960006004811061169d577f4e487b7100000000000000000000000000000000000000000000000000000000600052603260045260246000fd5b60200201516040516116b2949392919061326d565b60405180910390a16116c681600101612203565b505050505050505050565b6116df878787878787611ea1565b6000806000858152602001908152602001600020600084815260200190815260200160002060000190506040518060800160405280831515815260200186600060048110611756577f4e487b7100000000000000000000000000000000000000000000000000000000600052603260045260246000fd5b602002015181526020018660036004811061179a577f4e487b7100000000000000000000000000000000000000000000000000000000600052603260045260246000fd5b60200201518152602001600015158152508160000160006117bd846001016121f5565b815260200190815260200160002060008201518160000160006101000a81548160ff021916908315150217905550602082015181600101556040820151816002015560608201518160030160006101000a81548160ff0219169083151502179055509050507f5a09b93169b70f52b5fef188ef3328958c0c736fdbad0ef5ba0a5ecf0a39766661184f826001016121f5565b85858860006004811061188b577f4e487b7100000000000000000000000000000000000000000000000000000000600052603260045260246000fd5b60200201516040516118a0949392919061331d565b60405180910390a16118b481600101612203565b5050505050505050565b6000600160009054906101000a900473ffffffffffffffffffffffffffffffffffffffff1673ffffffffffffffffffffffffffffffffffffffff166334baeab9898989896040518563ffffffff1660e01b815260040161192194939291906130c4565b60206040518083038186803b15801561193957600080fd5b505afa15801561194d573d6000803e3d6000fd5b505050506040513d601f19601f820116820180604052508101906119719190612975565b9050806119b3576040517f08c379a00000000000000000000000000000000000000000000000000000000081526004016119aa906131ab565b60405180910390fd5b6000600460009054906101000a900473ffffffffffffffffffffffffffffffffffffffff1673ffffffffffffffffffffffffffffffffffffffff1663107cfe5186866040518363ffffffff1660e01b8152600401611a1292919061320d565b60006040518083038186803b158015611a2a57600080fd5b505afa158015611a3e573d6000803e3d6000fd5b505050506040513d6000823e3d601f19601f82011682018060405250810190611a67919061299e565b90508060a00151611aad576040517f08c379a0000000000000000000000000000000000000000000000000000000008152600401611aa49061318b565b60405180910390fd5b600080600087815260200190815260200160002060008681526020019081526020016000206006019050600081600001600086815260200190815260200160002090508060030160009054906101000a900460ff1615611b42576040517f08c379a0000000000000000000000000000000000000000000000000000000008152600401611b399061316b565b60405180910390fd5b87600060058110611b7c577f4e487b7100000000000000000000000000000000000000000000000000000000600052603260045260246000fd5b60200201518160010154148015611bd4575087600360058110611bc8577f4e487b7100000000000000000000000000000000000000000000000000000000600052603260045260246000fd5b60200201518160020154145b8015611c37575087600460058110611c15577f4e487b7100000000000000000000000000000000000000000000000000000000600052603260045260246000fd5b602002015161ffff168260020160009054906101000a900461ffff1661ffff16145b611c76576040517f08c379a0000000000000000000000000000000000000000000000000000000008152600401611c6d9061314b565b60405180910390fd5b8060000160009054906101000a900460ff168015611cae57508060000160019054906101000a900460ff1660ff16836060015160ff16145b80611ced57508060000160009054906101000a900460ff168015611cec57508060000160019054906101000a900460ff1660ff16836080015160ff16145b5b611d2c576040517f08c379a0000000000000000000000000000000000000000000000000000000008152600401611d239061310b565b60405180910390fd5b60018160030160006101000a81548160ff021916908315150217905550600360009054906101000a900473ffffffffffffffffffffffffffffffffffffffff1673ffffffffffffffffffffffffffffffffffffffff16639ced35f289600060058110611dc1577f4e487b7100000000000000000000000000000000000000000000000000000000600052603260045260246000fd5b60200201518a600160058110611e00577f4e487b7100000000000000000000000000000000000000000000000000000000600052603260045260246000fd5b60200201518b600260058110611e3f577f4e487b7100000000000000000000000000000000000000000000000000000000600052603260045260246000fd5b60200201516040518463ffffffff1660e01b8152600401611e6293929190613236565b600060405180830381600087803b158015611e7c57600080fd5b505af1158015611e90573d6000803e3d6000fd5b505050505050505050505050505050565b6000600260009054906101000a900473ffffffffffffffffffffffffffffffffffffffff1673ffffffffffffffffffffffffffffffffffffffff16635fe8c13b888888886040518563ffffffff1660e01b8152600401611f04949392919061307d565b60206040518083038186803b158015611f1c57600080fd5b505afa158015611f30573d6000803e3d6000fd5b505050506040513d601f19601f82011682018060405250810190611f549190612975565b905080611f96576040517f08c379a0000000000000000000000000000000000000000000000000000000008152600401611f8d906131ab565b60405180910390fd5b6000600460009054906101000a900473ffffffffffffffffffffffffffffffffffffffff1673ffffffffffffffffffffffffffffffffffffffff1663107cfe5185856040518363ffffffff1660e01b8152600401611ff592919061320d565b60006040518083038186803b15801561200d57600080fd5b505afa158015612021573d6000803e3d6000fd5b505050506040513d6000823e3d601f19601f8201168201806040525081019061204a919061299e565b90508060400151610e104261205f91906135de565b11156120a0576040517f08c379a00000000000000000000000000000000000000000000000000000000081526004016120979061312b565b60405180910390fd5b600360009054906101000a900473ffffffffffffffffffffffffffffffffffffffff1673ffffffffffffffffffffffffffffffffffffffff16639ced35f286600060048110612118577f4e487b7100000000000000000000000000000000000000000000000000000000600052603260045260246000fd5b602002015187600160048110612157577f4e487b7100000000000000000000000000000000000000000000000000000000600052603260045260246000fd5b602002015188600260048110612196577f4e487b7100000000000000000000000000000000000000000000000000000000600052603260045260246000fd5b60200201516040518463ffffffff1660e01b81526004016121b993929190613236565b600060405180830381600087803b1580156121d357600080fd5b505af11580156121e7573d6000803e3d6000fd5b505050505050505050505050565b600081600001549050919050565b6001816000016000828254019250508190555050565b60405180606001604052806060815260200160608152602001606081525090565b604051806080016040528060001515815260200160008152602001600081526020016000151581525090565b6040518060a00160405280600015158152602001600060ff16815260200160008152602001600081526020016000151581525090565b6040518060a00160405280600060ff168152602001600060ff16815260200160008152602001600081526020016000151581525090565b60006122e66122e18461339a565b613375565b905080828560408602820111156122fc57600080fd5b60005b8581101561232c578161231288826124c4565b8452602084019350604083019250506001810190506122ff565b5050509392505050565b6000612349612344846133c0565b613375565b9050808285602086028201111561235f57600080fd5b60005b8581101561238f5781612375888261266d565b845260208401935060208301925050600181019050612362565b5050509392505050565b60006123ac6123a7846133e6565b613375565b905080828560208602820111156123c257600080fd5b60005b858110156123f257816123d8888261266d565b8452602084019350602083019250506001810190506123c5565b5050509392505050565b600061240f61240a8461340c565b613375565b9050808285602086028201111561242557600080fd5b60005b85811015612455578161243b888261266d565b845260208401935060208301925050600181019050612428565b5050509392505050565b600061247261246d84613432565b613375565b90508281526020810184848401111561248a57600080fd5b612495848285613657565b509392505050565b600082601f8301126124ae57600080fd5b60026124bb8482856122d3565b91505092915050565b600082601f8301126124d557600080fd5b60026124e2848285612336565b91505092915050565b600082601f8301126124fc57600080fd5b6004612509848285612399565b91505092915050565b600082601f83011261252357600080fd5b60056125308482856123fc565b91505092915050565b6000813590506125488161390d565b92915050565b60008151905061255d8161390d565b92915050565b600082601f83011261257457600080fd5b815161258484826020860161245f565b91505092915050565b600060e0828403121561259f57600080fd5b6125a960e0613375565b9050600082015167ffffffffffffffff8111156125c557600080fd5b6125d184828501612563565b600083015250602082015167ffffffffffffffff8111156125f157600080fd5b6125fd84828501612563565b602083015250604061261184828501612682565b6040830152506060612625848285016126ac565b6060830152506080612639848285016126ac565b60808301525060a061264d8482850161254e565b60a08301525060c06126618482850161254e565b60c08301525092915050565b60008135905061267c81613924565b92915050565b60008151905061269181613924565b92915050565b6000813590506126a68161393b565b92915050565b6000815190506126bb8161393b565b92915050565b60008060008060008060006101e0888a0312156126dd57600080fd5b60006126eb8a828b016124c4565b97505060406126fc8a828b0161249d565b96505060c061270d8a828b016124c4565b95505061010061271f8a828b016124eb565b9450506101806127318a828b0161266d565b9350506101a06127438a828b0161266d565b9250506101c06127558a828b01612539565b91505092959891949750929550565b600080600080600080600080610200898b03121561278157600080fd5b600061278f8b828c016124c4565b98505060406127a08b828c0161249d565b97505060c06127b18b828c016124c4565b9650506101006127c38b828c016124eb565b9550506101806127d58b828c0161266d565b9450506101a06127e78b828c0161266d565b9350506101c06127f98b828c01612539565b9250506101e061280b8b828c01612697565b9150509295985092959890939650565b600080600080600080600080610200898b03121561283857600080fd5b60006128468b828c016124c4565b98505060406128578b828c0161249d565b97505060c06128688b828c016124c4565b96505061010061287a8b828c016124eb565b95505061018061288c8b828c0161266d565b9450506101a061289e8b828c0161266d565b9350506101c06128b08b828c01612697565b9250506101e06128c28b828c01612697565b9150509295985092959890939650565b6000806000806000806000610200888a0312156128ee57600080fd5b60006128fc8a828b016124c4565b975050604061290d8a828b0161249d565b96505060c061291e8a828b016124c4565b9550506101006129308a828b01612512565b9450506101a06129428a828b0161266d565b9350506101c06129548a828b0161266d565b9250506101e06129668a828b0161266d565b91505092959891949750929550565b60006020828403121561298757600080fd5b60006129958482850161254e565b91505092915050565b6000602082840312156129b057600080fd5b600082015167ffffffffffffffff8111156129ca57600080fd5b6129d68482850161258d565b91505092915050565b600080604083850312156129f257600080fd5b6000612a008582860161266d565b9250506020612a118582860161266d565b9150509250929050565b6000612a278383612c04565b60408301905092915050565b6000612a3f8383612ecd565b60a08301905092915050565b6000612a578383612f93565b60a08301905092915050565b6000612a6f8383612ffb565b60808301905092915050565b6000612a878383613050565b60208301905092915050565b612a9c816134bb565b612aa68184613563565b9250612ab182613463565b8060005b83811015612ae2578151612ac98782612a1b565b9650612ad483613508565b925050600181019050612ab5565b505050505050565b6000612af5826134c6565b612aff818561356e565b9350612b0a8361346d565b8060005b83811015612b3b578151612b228882612a33565b9750612b2d83613515565b925050600181019050612b0e565b5085935050505092915050565b6000612b53826134d1565b612b5d818561357f565b9350612b688361347d565b8060005b83811015612b99578151612b808882612a4b565b9750612b8b83613522565b925050600181019050612b6c565b5085935050505092915050565b6000612bb1826134dc565b612bbb8185613590565b9350612bc68361348d565b8060005b83811015612bf7578151612bde8882612a63565b9750612be98361352f565b925050600181019050612bca565b5085935050505092915050565b612c0d816134e7565b612c1781846135a1565b9250612c228261349d565b8060005b83811015612c53578151612c3a8782612a7b565b9650612c458361353c565b925050600181019050612c26565b505050505050565b612c64816134e7565b612c6e81846135ac565b9250612c798261349d565b8060005b83811015612caa578151612c918782612a7b565b9650612c9c8361353c565b925050600181019050612c7d565b505050505050565b612cbb816134f2565b612cc581846135b7565b9250612cd0826134a7565b8060005b83811015612d01578151612ce88782612a7b565b9650612cf383613549565b925050600181019050612cd4565b505050505050565b612d12816134fd565b612d1c81846135c2565b9250612d27826134b1565b8060005b83811015612d58578151612d3f8782612a7b565b9650612d4a83613556565b925050600181019050612d2b565b505050505050565b612d6981613634565b82525050565b6000612d7c600b836135cd565b9150612d8782613773565b602082019050919050565b6000612d9f601c836135cd565b9150612daa8261379c565b602082019050919050565b6000612dc26005836135cd565b9150612dcd826137c5565b602082019050919050565b6000612de5600b836135cd565b9150612df0826137ee565b602082019050919050565b6000612e08600f836135cd565b9150612e1382613817565b602082019050919050565b6000612e2b6020836135cd565b9150612e3682613840565b602082019050919050565b6000612e4e6005836135cd565b9150612e5982613869565b602082019050919050565b6000612e71600d836135cd565b9150612e7c82613892565b602082019050919050565b6000612e946006836135cd565b9150612e9f826138bb565b602082019050919050565b6000612eb7600e836135cd565b9150612ec2826138e4565b602082019050919050565b60a082016000820151612ee36000850182612d60565b506020820151612ef6602085018261306e565b506040820151612f096040850182613050565b506060820151612f1c6060850182613050565b506080820151612f2f6080850182612d60565b50505050565b60006060830160008301518482036000860152612f528282612ba6565b91505060208301518482036020860152612f6c8282612b48565b91505060408301518482036040860152612f868282612aea565b9150508091505092915050565b60a082016000820151612fa9600085018261306e565b506020820151612fbc602085018261306e565b506040820151612fcf6040850182613050565b506060820151612fe26060850182613050565b506080820151612ff56080850182612d60565b50505050565b6080820160008201516130116000850182612d60565b5060208201516130246020850182613050565b5060408201516130376040850182613050565b50606082015161304a6060850182612d60565b50505050565b61305981613640565b82525050565b61306881613640565b82525050565b6130778161364a565b82525050565b6000610180820190506130936000830187612c5b565b6130a06040830186612a93565b6130ad60c0830185612c5b565b6130bb610100830184612cb2565b95945050505050565b60006101a0820190506130da6000830187612c5b565b6130e76040830186612a93565b6130f460c0830185612c5b565b613102610100830184612d09565b95945050505050565b6000602082019050818103600083015261312481612d6f565b9050919050565b6000602082019050818103600083015261314481612d92565b9050919050565b6000602082019050818103600083015261316481612dd8565b9050919050565b6000602082019050818103600083015261318481612dfb565b9050919050565b600060208201905081810360008301526131a481612e1e565b9050919050565b600060208201905081810360008301526131c481612e64565b9050919050565b600060208201905081810360008301526131e481612eaa565b9050919050565b600060208201905081810360008301526132058184612f35565b905092915050565b6000604082019050613222600083018561305f565b61322f602083018461305f565b9392505050565b600060608201905061324b600083018661305f565b613258602083018561305f565b613265604083018461305f565b949350505050565b600060a082019050613282600083018761305f565b61328f602083018661305f565b61329c604083018561305f565b6132a9606083018461305f565b81810360808301526132ba81612db5565b905095945050505050565b600060a0820190506132da600083018761305f565b6132e7602083018661305f565b6132f4604083018561305f565b613301606083018461305f565b818103608083015261331281612e41565b905095945050505050565b600060a082019050613332600083018761305f565b61333f602083018661305f565b61334c604083018561305f565b613359606083018461305f565b818103608083015261336a81612e87565b905095945050505050565b600061337f613390565b905061338b828261368a565b919050565b6000604051905090565b600067ffffffffffffffff8211156133b5576133b4613733565b5b602082029050919050565b600067ffffffffffffffff8211156133db576133da613733565b5b602082029050919050565b600067ffffffffffffffff82111561340157613400613733565b5b602082029050919050565b600067ffffffffffffffff82111561342757613426613733565b5b602082029050919050565b600067ffffffffffffffff82111561344d5761344c613733565b5b61345682613762565b9050602081019050919050565b6000819050919050565b6000819050602082019050919050565b6000819050602082019050919050565b6000819050602082019050919050565b6000819050919050565b6000819050919050565b6000819050919050565b600060029050919050565b600081519050919050565b600081519050919050565b600081519050919050565b600060029050919050565b600060049050919050565b600060059050919050565b6000602082019050919050565b6000602082019050919050565b6000602082019050919050565b6000602082019050919050565b6000602082019050919050565b6000602082019050919050565b6000602082019050919050565b600081905092915050565b600082825260208201905092915050565b600082825260208201905092915050565b600082825260208201905092915050565b600081905092915050565b600081905092915050565b600081905092915050565b600081905092915050565b600082825260208201905092915050565b60006135e982613640565b91506135f483613640565b9250827fffffffffffffffffffffffffffffffffffffffffffffffffffffffffffffffff0382111561362957613628613704565b5b828201905092915050565b60008115159050919050565b6000819050919050565b600060ff82169050919050565b60005b8381101561367557808201518184015260208101905061365a565b83811115613684576000848401525b50505050565b61369382613762565b810181811067ffffffffffffffff821117156136b2576136b1613733565b5b80604052505050565b60006136c682613640565b91507fffffffffffffffffffffffffffffffffffffffffffffffffffffffffffffffff8214156136f9576136f8613704565b5b600182019050919050565b7f4e487b7100000000000000000000000000000000000000000000000000000000600052601160045260246000fd5b7f4e487b7100000000000000000000000000000000000000000000000000000000600052604160045260246000fd5b6000601f19601f8301169050919050565b7f446964206e6f742077696e000000000000000000000000000000000000000000600082015250565b7f546f206c61746520746f20626574206f6e2074686973206d6174636800000000600082015250565b7f73636f7265000000000000000000000000000000000000000000000000000000600082015250565b7f496e76616c696420626574000000000000000000000000000000000000000000600082015250565b7f416c726561647920636c61696d65640000000000000000000000000000000000600082015250565b7f436f6f7264696e61746f72206e6565647320746f20636c6f7365206d61746368600082015250565b7f676f616c73000000000000000000000000000000000000000000000000000000600082015250565b7f496e76616c69642070726f6f6600000000000000000000000000000000000000600082015250565b7f77696e6e65720000000000000000000000000000000000000000000000000000600082015250565b7f4e6f20726573756c747320796574000000000000000000000000000000000000600082015250565b61391681613634565b811461392157600080fd5b50565b61392d81613640565b811461393857600080fd5b50565b6139448161364a565b811461394f57600080fd5b5056fea264697066735822122062f47c48a190b424fcd43456bde892867514fbac913eed372eb386446b5a1ea664736f6c63430008040033",
  "linkReferences": {},
  "deployedLinkReferences": {}
}